{
  "transactions": [
    {
      "hash": "0xc0e756abbc297ca57e177f43ab4ac20b94bb36d4b3935a0baf2311ac1fa9f798",
      "transactionType": "CALL",
      "contractName": null,
      "contractAddress": "0x5aae96534aa5f481a1b92ec8dd48f7a5423b13c4",
      "function": "setTrustedVault(uint64,address)",
      "arguments": [
        "3478487238524512106",
        "0xA1DE025b706687b9A4ec40A3958aa5dC60BF1B66"
      ],
      "transaction": {
        "from": "0x3ebf8ffc3f1517f9760dd2bff36f934d19fa6cd8",
        "to": "0x5aae96534aa5f481a1b92ec8dd48f7a5423b13c4",
        "gas": "0x1053a",
        "value": "0x0",
        "input": "0x09bce740000000000000000000000000000000000000000000000000304611b6affba76a000000000000000000000000a1de025b706687b9a4ec40a3958aa5dc60bf1b66",
        "nonce": "0x8f",
        "chainId": "0x14a34"
      },
      "additionalContracts": [],
      "isFixedGasLimit": false
    },
    {
      "hash": "0x2a649881da5e559989fab11a13cab0b8fb4b78f0f7130789c7dbe1874ebde837",
      "transactionType": "CALL",
      "contractName": null,
      "contractAddress": "0xe4ab69c077896252fafbd49efd26b5d171a32410",
      "function": "approve(address,uint256)",
      "arguments": [
        "0x5aAe96534Aa5f481A1B92eC8dD48f7A5423b13C4",
        "100000000000000000"
      ],
      "transaction": {
        "from": "0x3ebf8ffc3f1517f9760dd2bff36f934d19fa6cd8",
        "to": "0xe4ab69c077896252fafbd49efd26b5d171a32410",
        "gas": "0x108b7",
        "value": "0x0",
        "input": "0x095ea7b30000000000000000000000005aae96534aa5f481a1b92ec8dd48f7a5423b13c4000000000000000000000000000000000000000000000000016345785d8a0000",
        "nonce": "0x90",
        "chainId": "0x14a34"
      },
      "additionalContracts": [],
      "isFixedGasLimit": false
    },
    {
      "hash": "0xae2bec7cc0400a7c2fc4df2e76c42a26b90710de1b5f1eeccfc5f2242167481c",
      "transactionType": "CALL",
      "contractName": null,
      "contractAddress": "0x5aae96534aa5f481a1b92ec8dd48f7a5423b13c4",
      "function": "fundLink(uint256)",
      "arguments": [
        "100000000000000000"
      ],
      "transaction": {
        "from": "0x3ebf8ffc3f1517f9760dd2bff36f934d19fa6cd8",
        "to": "0x5aae96534aa5f481a1b92ec8dd48f7a5423b13c4",
        "gas": "0x13ce2",
        "value": "0x0",
        "input": "0xbb38a1aa000000000000000000000000000000000000000000000000016345785d8a0000",
        "nonce": "0x91",
        "chainId": "0x14a34"
      },
      "additionalContracts": [],
      "isFixedGasLimit": false
    },
    {
      "hash": "0x1ce2e165f3101217daff9bfee38fe16d142cde12e61a6e9ffb475df26b9275d3",
      "transactionType": "CALL",
      "contractName": null,
      "contractAddress": "0x5aae96534aa5f481a1b92ec8dd48f7a5423b13c4",
      "function": "updateYieldData(uint64,uint256)",
      "arguments": [
        "3478487238524512106",
        "80000000000000000"
      ],
      "transaction": {
        "from": "0x3ebf8ffc3f1517f9760dd2bff36f934d19fa6cd8",
        "to": "0x5aae96534aa5f481a1b92ec8dd48f7a5423b13c4",
        "gas": "0x2e5aa",
        "value": "0x0",
        "input": "0x6e4801b2000000000000000000000000000000000000000000000000304611b6affba76a000000000000000000000000000000000000000000000000011c37937e080000",
        "nonce": "0x92",
        "chainId": "0x14a34"
      },
      "additionalContracts": [],
      "isFixedGasLimit": false
    },
    {
      "hash": "0xf9543db0a1bddbee35d53edf2b53e943f0989165c8cafe04ac4062895d548ba7",
      "transactionType": "CALL",
      "contractName": null,
      "contractAddress": "0x5aae96534aa5f481a1b92ec8dd48f7a5423b13c4",
      "function": "updateYieldData(uint64,uint256)",
      "arguments": [
        "10344971235874465080",
        "30000000000000000"
      ],
      "transaction": {
        "from": "0x3ebf8ffc3f1517f9760dd2bff36f934d19fa6cd8",
        "to": "0x5aae96534aa5f481a1b92ec8dd48f7a5423b13c4",
        "gas": "0x2304e",
        "value": "0x0",
        "input": "0x6e4801b20000000000000000000000000000000000000000000000008f90b8876dee6538000000000000000000000000000000000000000000000000006a94d74f430000",
        "nonce": "0x93",
        "chainId": "0x14a34"
      },
      "additionalContracts": [],
      "isFixedGasLimit": false
    }
  ],
  "receipts": [
    {
      "status": "0x1",
      "cumulativeGasUsed": "0x24ee25",
      "logs": [
        {
          "address": "0x5aae96534aa5f481a1b92ec8dd48f7a5423b13c4",
          "topics": [
            "0xaca1648a739678727377aa83875460bb23dddb92a88315c7b8d9879162e72ef5"
          ],
          "data": "0x000000000000000000000000000000000000000000000000304611b6affba76a000000000000000000000000a1de025b706687b9a4ec40a3958aa5dc60bf1b66",
          "blockHash": "0x0000000000000000000000000000000000000000000000000000000000000000",
          "blockNumber": "0x247cbf8",
          "blockTimestamp": "0x69a2f6d0",
          "transactionHash": "0xae2bec7cc0400a7c2fc4df2e76c42a26b90710de1b5f1eeccfc5f2242167481c",
          "transactionIndex": "0x12",
          "logIndex": "0x63",
          "removed": false
        }
      ],
      "logsBloom": "0x00000000000000000000000000000000000000000000000000000000000000000000000000000000000000000000000000000000000000000000000000000000000000000000000000000000000000000000000000000000001000000000000000000000000000000000000000000000000000000000000000000000000000000000000000000000000000000000000000000000000000000000000000000000000000000000000000000000000000000000000000200000000000000000000000000000000020000000000000000080000000000000000000000000000000000000000001000004000000000000000000000000000000000000000000000000",
      "type": "0x2",
      "transactionHash": "0xae2bec7cc0400a7c2fc4df2e76c42a26b90710de1b5f1eeccfc5f2242167481c",
      "transactionIndex": "0x12",
      "blockHash": "0x0000000000000000000000000000000000000000000000000000000000000000",
      "blockNumber": "0x247cbf8",
      "gasUsed": "0xbd20",
      "effectiveGasPrice": "0x5b8d80",
      "blobGasUsed": "0x364c",
      "from": "0x3ebf8ffc3f1517f9760dd2bff36f934d19fa6cd8",
      "to": "0x5aae96534aa5f481a1b92ec8dd48f7a5423b13c4",
      "contractAddress": null,
      "daFootprintGasScalar": "0x8b",
      "l1BaseFeeScalar": "0x44d",
      "l1BlobBaseFee": "0x3",
      "l1BlobBaseFeeScalar": "0xa118b",
      "l1Fee": "0x107",
      "l1GasPrice": "0x25",
      "l1GasUsed": "0x640"
    },
    {
      "status": "0x1",
      "cumulativeGasUsed": "0x25a326",
      "logs": [
        {
          "address": "0xe4ab69c077896252fafbd49efd26b5d171a32410",
          "topics": [
            "0x8c5be1e5ebec7d5bd14f71427d1e84f3dd0314c0f7b2291e5b200ac8c7c3b925",
            "0x0000000000000000000000003ebf8ffc3f1517f9760dd2bff36f934d19fa6cd8",
            "0x0000000000000000000000005aae96534aa5f481a1b92ec8dd48f7a5423b13c4"
          ],
          "data": "0x000000000000000000000000000000000000000000000000016345785d8a0000",
          "blockHash": "0x0000000000000000000000000000000000000000000000000000000000000000",
          "blockNumber": "0x247cbf8",
          "blockTimestamp": "0x69a2f6d0",
          "transactionHash": "0xf9543db0a1bddbee35d53edf2b53e943f0989165c8cafe04ac4062895d548ba7",
          "transactionIndex": "0x13",
          "logIndex": "0x64",
          "removed": false
        }
      ],
      "logsBloom": "0x00008000000000000000000000000000000000000000000000000000000000000000000000000000000000020000000000000000000000000000000000200000000000000000000000000000000000000000000000000000000000000000000000000600000000000000000000000000000000000000000000000000000000000000000000000000800000000000000000000000000000000000000000000001020000000000000000000000000000000000000000000000020000000000000000000000000000000000000000000000000000000000000000000000000000000010000000000000000000008000000000000000000000000000200000000000",
      "type": "0x2",
      "transactionHash": "0xf9543db0a1bddbee35d53edf2b53e943f0989165c8cafe04ac4062895d548ba7",
      "transactionIndex": "0x13",
      "blockHash": "0x0000000000000000000000000000000000000000000000000000000000000000",
      "blockNumber": "0x247cbf8",
      "gasUsed": "0xb501",
      "effectiveGasPrice": "0x5b8d80",
      "blobGasUsed": "0x364c",
      "from": "0x3ebf8ffc3f1517f9760dd2bff36f934d19fa6cd8",
      "to": "0xe4ab69c077896252fafbd49efd26b5d171a32410",
      "contractAddress": null,
      "daFootprintGasScalar": "0x8b",
      "l1BaseFeeScalar": "0x44d",
      "l1BlobBaseFee": "0x3",
      "l1BlobBaseFeeScalar": "0xa118b",
      "l1Fee": "0x107",
      "l1GasPrice": "0x25",
      "l1GasUsed": "0x640"
    },
    {
      "status": "0x1",
      "cumulativeGasUsed": "0x268892",
      "logs": [
        {
          "address": "0xe4ab69c077896252fafbd49efd26b5d171a32410",
          "topics": [
            "0x8c5be1e5ebec7d5bd14f71427d1e84f3dd0314c0f7b2291e5b200ac8c7c3b925",
            "0x0000000000000000000000003ebf8ffc3f1517f9760dd2bff36f934d19fa6cd8",
            "0x0000000000000000000000005aae96534aa5f481a1b92ec8dd48f7a5423b13c4"
          ],
          "data": "0x0000000000000000000000000000000000000000000000000000000000000000",
          "blockHash": "0x0000000000000000000000000000000000000000000000000000000000000000",
          "blockNumber": "0x247cbf8",
          "blockTimestamp": "0x69a2f6d0",
          "transactionHash": "0xc0e756abbc297ca57e177f43ab4ac20b94bb36d4b3935a0baf2311ac1fa9f798",
          "transactionIndex": "0x14",
          "logIndex": "0x65",
          "removed": false
        },
        {
          "address": "0xe4ab69c077896252fafbd49efd26b5d171a32410",
          "topics": [
            "0xddf252ad1be2c89b69c2b068fc378daa952ba7f163c4a11628f55a4df523b3ef",
            "0x0000000000000000000000003ebf8ffc3f1517f9760dd2bff36f934d19fa6cd8",
            "0x0000000000000000000000005aae96534aa5f481a1b92ec8dd48f7a5423b13c4"
          ],
          "data": "0x000000000000000000000000000000000000000000000000016345785d8a0000",
          "blockHash": "0x0000000000000000000000000000000000000000000000000000000000000000",
          "blockNumber": "0x247cbf8",
          "blockTimestamp": "0x69a2f6d0",
          "transactionHash": "0xc0e756abbc297ca57e177f43ab4ac20b94bb36d4b3935a0baf2311ac1fa9f798",
          "transactionIndex": "0x14",
          "logIndex": "0x66",
          "removed": false
        },
        {
          "address": "0x5aae96534aa5f481a1b92ec8dd48f7a5423b13c4",
          "topics": [
            "0x50821bd39ba8e71bcc8c0df3f97ac51a110085c3ec0da1c821117a2147c224b9",
            "0x0000000000000000000000003ebf8ffc3f1517f9760dd2bff36f934d19fa6cd8"
          ],
          "data": "0x000000000000000000000000000000000000000000000000016345785d8a0000",
          "blockHash": "0x0000000000000000000000000000000000000000000000000000000000000000",
          "blockNumber": "0x247cbf8",
          "blockTimestamp": "0x69a2f6d0",
          "transactionHash": "0xc0e756abbc297ca57e177f43ab4ac20b94bb36d4b3935a0baf2311ac1fa9f798",
          "transactionIndex": "0x14",
          "logIndex": "0x67",
          "removed": false
        }
      ],
      "logsBloom": "0x00008000000000000000000000000000000000000000000000000000000000000000000000000000000000020000000000000000000000000000000000200000000000000000000000008008000000000000000000000000000000000000000000000600000000000000000000000000000100000000000000000010000000000000000000000000800000000000000000000000000000000000000000000001020000000000000000000000000000000000001000200000020000000000000000000002000000000000000000000080000000000000000000000000000000000010000000000004000000008000000000000000000000000000200000000000",
      "type": "0x2",
      "transactionHash": "0xc0e756abbc297ca57e177f43ab4ac20b94bb36d4b3935a0baf2311ac1fa9f798",
      "transactionIndex": "0x14",
      "blockHash": "0x0000000000000000000000000000000000000000000000000000000000000000",
      "blockNumber": "0x247cbf8",
      "gasUsed": "0xe56c",
      "effectiveGasPrice": "0x5b8d80",
      "blobGasUsed": "0x364c",
      "from": "0x3ebf8ffc3f1517f9760dd2bff36f934d19fa6cd8",
      "to": "0x5aae96534aa5f481a1b92ec8dd48f7a5423b13c4",
      "contractAddress": null,
      "daFootprintGasScalar": "0x8b",
      "l1BaseFeeScalar": "0x44d",
      "l1BlobBaseFee": "0x3",
      "l1BlobBaseFeeScalar": "0xa118b",
      "l1Fee": "0x107",
      "l1GasPrice": "0x25",
      "l1GasUsed": "0x640"
    },
    {
      "status": "0x1",
      "cumulativeGasUsed": "0x28a186",
      "logs": [
        {
          "address": "0x5aae96534aa5f481a1b92ec8dd48f7a5423b13c4",
          "topics": [
            "0x3e8e850f6b70ae0ddd4bcc9e736111c00225be60aab9085691176cb31faaf433",
            "0x000000000000000000000000000000000000000000000000304611b6affba76a"
          ],
          "data": "0x000000000000000000000000000000000000000000000000011c37937e0800000000000000000000000000000000000000000000000000000000000069a2f6d0",
          "blockHash": "0x0000000000000000000000000000000000000000000000000000000000000000",
          "blockNumber": "0x247cbf8",
          "blockTimestamp": "0x69a2f6d0",
          "transactionHash": "0x1ce2e165f3101217daff9bfee38fe16d142cde12e61a6e9ffb475df26b9275d3",
          "transactionIndex": "0x15",
          "logIndex": "0x68",
          "removed": false
        }
      ],
      "logsBloom": "0x00000000000000000000000000000000000000000000000000000000000000000000000000000000000000000000000000000000080000000000000000000000000000000000000000000000000000000000000000010000000000000000000000000000008000000000000000000000000000000000000000000000000000000000000000000000000000000000000000000000000000000000000000000000000000000000000000000000000000000000000000200000000000000000000000004000000000000000000000000080000000000000000000000000080000000000000000000004000000000000000000000000000000000000000000200000",
      "type": "0x2",
      "transactionHash": "0x1ce2e165f3101217daff9bfee38fe16d142cde12e61a6e9ffb475df26b9275d3",
      "transactionIndex": "0x15",
      "blockHash": "0x0000000000000000000000000000000000000000000000000000000000000000",
      "blockNumber": "0x247cbf8",
      "gasUsed": "0x218f4",
      "effectiveGasPrice": "0x5b8d80",
      "blobGasUsed": "0x364c",
      "from": "0x3ebf8ffc3f1517f9760dd2bff36f934d19fa6cd8",
      "to": "0x5aae96534aa5f481a1b92ec8dd48f7a5423b13c4",
      "contractAddress": null,
      "daFootprintGasScalar": "0x8b",
      "l1BaseFeeScalar": "0x44d",
      "l1BlobBaseFee": "0x3",
      "l1BlobBaseFeeScalar": "0xa118b",
      "l1Fee": "0x107",
      "l1GasPrice": "0x25",
      "l1GasUsed": "0x640"
    },
    {
      "status": "0x1",
      "cumulativeGasUsed": "0x2a372d",
      "logs": [
        {
          "address": "0x5aae96534aa5f481a1b92ec8dd48f7a5423b13c4",
          "topics": [
            "0x3e8e850f6b70ae0ddd4bcc9e736111c00225be60aab9085691176cb31faaf433",
            "0x0000000000000000000000000000000000000000000000008f90b8876dee6538"
          ],
          "data": "0x000000000000000000000000000000000000000000000000006a94d74f4300000000000000000000000000000000000000000000000000000000000069a2f6d0",
          "blockHash": "0x0000000000000000000000000000000000000000000000000000000000000000",
          "blockNumber": "0x247cbf8",
          "blockTimestamp": "0x69a2f6d0",
          "transactionHash": "0x2a649881da5e559989fab11a13cab0b8fb4b78f0f7130789c7dbe1874ebde837",
          "transactionIndex": "0x16",
          "logIndex": "0x69",
          "removed": false
        }
      ],
      "logsBloom": "0x00000000000000000000000000000000000000000000000000000000000000000000000000000000000000000000000000000000000000000000000000000000000000000000000000000000000000000000000400010000000000000000200000000000008000000000000000000000000000000000000000000000000000004000000000000000000000000000000000000000000000000000000000000000000000000000000000000000000000000000000000200000000000000000000000004000000000000000000000000080000000000000000000000000000000000000000000000004000000000000000000000000000000000000000000000000",
      "type": "0x2",
      "transactionHash": "0x2a649881da5e559989fab11a13cab0b8fb4b78f0f7130789c7dbe1874ebde837",
      "transactionIndex": "0x16",
      "blockHash": "0x0000000000000000000000000000000000000000000000000000000000000000",
      "blockNumber": "0x247cbf8",
      "gasUsed": "0x195a7",
      "effectiveGasPrice": "0x5b8d80",
      "blobGasUsed": "0x364c",
      "from": "0x3ebf8ffc3f1517f9760dd2bff36f934d19fa6cd8",
      "to": "0x5aae96534aa5f481a1b92ec8dd48f7a5423b13c4",
      "contractAddress": null,
      "daFootprintGasScalar": "0x8b",
      "l1BaseFeeScalar": "0x44d",
      "l1BlobBaseFee": "0x3",
      "l1BlobBaseFeeScalar": "0xa118b",
      "l1Fee": "0x107",
      "l1GasPrice": "0x25",
      "l1GasUsed": "0x640"
    }
  ],
  "libraries": [],
  "pending": [],
  "returns": {},
  "timestamp": 1772287694803,
  "chain": 84532,
  "commit": "8d83af6"
}