{
  "transactions": [
    {
      "hash": "0xde56542af306820d2a00791e1426fe1de6423c05c5a53f53147507f2f5a1d427",
      "transactionType": "CALL",
      "contractName": null,
      "contractAddress": "0x37c78afb59a2d66811565ca2431bfa395ed7666b",
      "function": "setTrustedVault(uint64,address)",
      "arguments": [
        "3478487238524512106",
        "0xe195954e128D7c65ba0632128B4F2d84EfE6A8D7"
      ],
      "transaction": {
        "from": "0x3ebf8ffc3f1517f9760dd2bff36f934d19fa6cd8",
        "to": "0x37c78afb59a2d66811565ca2431bfa395ed7666b",
        "gas": "0x1053a",
        "value": "0x0",
        "input": "0x09bce740000000000000000000000000000000000000000000000000304611b6affba76a000000000000000000000000e195954e128d7c65ba0632128b4f2d84efe6a8d7",
        "nonce": "0x28",
        "chainId": "0x14a34"
      },
      "additionalContracts": [],
      "isFixedGasLimit": false
    },
    {
      "hash": "0xe3af211b50d463ce37da196276091438f922e105361a50c37b495367bef7cc68",
      "transactionType": "CALL",
      "contractName": null,
      "contractAddress": "0xe4ab69c077896252fafbd49efd26b5d171a32410",
      "function": "approve(address,uint256)",
      "arguments": [
        "0x37c78AfB59a2D66811565Ca2431BFa395eD7666b",
        "2000000000000000000"
      ],
      "transaction": {
        "from": "0x3ebf8ffc3f1517f9760dd2bff36f934d19fa6cd8",
        "to": "0xe4ab69c077896252fafbd49efd26b5d171a32410",
        "gas": "0x108b7",
        "value": "0x0",
        "input": "0x095ea7b300000000000000000000000037c78afb59a2d66811565ca2431bfa395ed7666b0000000000000000000000000000000000000000000000001bc16d674ec80000",
        "nonce": "0x29",
        "chainId": "0x14a34"
      },
      "additionalContracts": [],
      "isFixedGasLimit": false
    },
    {
      "hash": "0xc517fc8b1f14c7ad0217b466f424e356f8ce775738c7b5f31564efade5b0fde6",
      "transactionType": "CALL",
      "contractName": null,
      "contractAddress": "0x37c78afb59a2d66811565ca2431bfa395ed7666b",
      "function": "fundLink(uint256)",
      "arguments": [
        "2000000000000000000"
      ],
      "transaction": {
        "from": "0x3ebf8ffc3f1517f9760dd2bff36f934d19fa6cd8",
        "to": "0x37c78afb59a2d66811565ca2431bfa395ed7666b",
        "gas": "0x13ce2",
        "value": "0x0",
        "input": "0xbb38a1aa0000000000000000000000000000000000000000000000001bc16d674ec80000",
        "nonce": "0x2a",
        "chainId": "0x14a34"
      },
      "additionalContracts": [],
      "isFixedGasLimit": false
    },
    {
      "hash": "0x0ce0b532b194a7891644e2d6495ee6f7bf9d36e16a344ff6b134e0811f5d125d",
      "transactionType": "CALL",
      "contractName": null,
      "contractAddress": "0x37c78afb59a2d66811565ca2431bfa395ed7666b",
      "function": "updateYieldData(uint64,uint256)",
      "arguments": [
        "3478487238524512106",
        "80000000000000000"
      ],
      "transaction": {
        "from": "0x3ebf8ffc3f1517f9760dd2bff36f934d19fa6cd8",
        "to": "0x37c78afb59a2d66811565ca2431bfa395ed7666b",
        "gas": "0x2e5aa",
        "value": "0x0",
        "input": "0x6e4801b2000000000000000000000000000000000000000000000000304611b6affba76a000000000000000000000000000000000000000000000000011c37937e080000",
        "nonce": "0x2b",
        "chainId": "0x14a34"
      },
      "additionalContracts": [],
      "isFixedGasLimit": false
    },
    {
      "hash": "0x668ebefa5e6f908d331a0a73b6438cb75564cbaabd5031f0d70cd80f75de68e3",
      "transactionType": "CALL",
      "contractName": null,
      "contractAddress": "0x37c78afb59a2d66811565ca2431bfa395ed7666b",
      "function": "updateYieldData(uint64,uint256)",
      "arguments": [
        "10344971235874465080",
        "30000000000000000"
      ],
      "transaction": {
        "from": "0x3ebf8ffc3f1517f9760dd2bff36f934d19fa6cd8",
        "to": "0x37c78afb59a2d66811565ca2431bfa395ed7666b",
        "gas": "0x2304e",
        "value": "0x0",
        "input": "0x6e4801b20000000000000000000000000000000000000000000000008f90b8876dee6538000000000000000000000000000000000000000000000000006a94d74f430000",
        "nonce": "0x2c",
        "chainId": "0x14a34"
      },
      "additionalContracts": [],
      "isFixedGasLimit": false
    }
  ],
  "receipts": [
    {
      "status": "0x1",
      "cumulativeGasUsed": "0x50a62a",
      "logs": [
        {
          "address": "0x37c78afb59a2d66811565ca2431bfa395ed7666b",
          "topics": [
            "0xaca1648a739678727377aa83875460bb23dddb92a88315c7b8d9879162e72ef5"
          ],
          "data": "0x000000000000000000000000000000000000000000000000304611b6affba76a000000000000000000000000e195954e128d7c65ba0632128b4f2d84efe6a8d7",
          "blockHash": "0x0000000000000000000000000000000000000000000000000000000000000000",
          "blockNumber": "0x246adaa",
          "blockTimestamp": "0x69a0ba34",
          "transactionHash": "0xde56542af306820d2a00791e1426fe1de6423c05c5a53f53147507f2f5a1d427",
          "transactionIndex": "0x13",
          "logIndex": "0x81",
          "removed": false
        }
      ],
      "logsBloom": "0x00000000000000000000000000000000000000000002000000000000000000000000000000000000000000000000000000000000000000000000000000000000000000000000000000000000000000000000000000000000001000000000000000000000000000000000000000000000000000000000000000000000000000000000000000000000000000000000000000000000000000000000000000000000000000000000000000200000000000000000000000000000000000000000000000000000000020000000000000000000000000000000000000000000000000000000000001000000000000000001000000000000000000000000000000000000",
      "type": "0x2",
      "transactionHash": "0xde56542af306820d2a00791e1426fe1de6423c05c5a53f53147507f2f5a1d427",
      "transactionIndex": "0x13",
      "blockHash": "0x0000000000000000000000000000000000000000000000000000000000000000",
      "blockNumber": "0x246adaa",
      "gasUsed": "0xbd20",
      "effectiveGasPrice": "0x5b8d80",
      "blobGasUsed": "0x364c",
      "from": "0x3ebf8ffc3f1517f9760dd2bff36f934d19fa6cd8",
      "to": "0x37c78afb59a2d66811565ca2431bfa395ed7666b",
      "contractAddress": null,
      "daFootprintGasScalar": "0x8b",
      "l1BaseFeeScalar": "0x44d",
      "l1BlobBaseFee": "0x1",
      "l1BlobBaseFeeScalar": "0xa118b",
      "l1Fee": "0x58",
      "l1GasPrice": "0xd",
      "l1GasUsed": "0x640"
    },
    {
      "status": "0x1",
      "cumulativeGasUsed": "0x515b2b",
      "logs": [
        {
          "address": "0xe4ab69c077896252fafbd49efd26b5d171a32410",
          "topics": [
            "0x8c5be1e5ebec7d5bd14f71427d1e84f3dd0314c0f7b2291e5b200ac8c7c3b925",
            "0x0000000000000000000000003ebf8ffc3f1517f9760dd2bff36f934d19fa6cd8",
            "0x00000000000000000000000037c78afb59a2d66811565ca2431bfa395ed7666b"
          ],
          "data": "0x0000000000000000000000000000000000000000000000001bc16d674ec80000",
          "blockHash": "0x0000000000000000000000000000000000000000000000000000000000000000",
          "blockNumber": "0x246adaa",
          "blockTimestamp": "0x69a0ba34",
          "transactionHash": "0xe3af211b50d463ce37da196276091438f922e105361a50c37b495367bef7cc68",
          "transactionIndex": "0x14",
          "logIndex": "0x82",
          "removed": false
        }
      ],
      "logsBloom": "0x00008000000000000000000000000000000000000000000000000000000002000000000000000000000000000000000000000000000000000000000000200000000000000000000000000000000000000000000000000000000000000000000000000600000000000000000000000000000000000000000000000000000000000000000000000000000000000000000100000000000000000000000000000000020000000000000000000000000000000000000000000000020000000000000000000000000000000000000000000000000000000000000000000000000000000010000000000000000000008020000000000000000000000000200000000000",
      "type": "0x2",
      "transactionHash": "0xe3af211b50d463ce37da196276091438f922e105361a50c37b495367bef7cc68",
      "transactionIndex": "0x14",
      "blockHash": "0x0000000000000000000000000000000000000000000000000000000000000000",
      "blockNumber": "0x246adaa",
      "gasUsed": "0xb501",
      "effectiveGasPrice": "0x5b8d80",
      "blobGasUsed": "0x364c",
      "from": "0x3ebf8ffc3f1517f9760dd2bff36f934d19fa6cd8",
      "to": "0xe4ab69c077896252fafbd49efd26b5d171a32410",
      "contractAddress": null,
      "daFootprintGasScalar": "0x8b",
      "l1BaseFeeScalar": "0x44d",
      "l1BlobBaseFee": "0x1",
      "l1BlobBaseFeeScalar": "0xa118b",
      "l1Fee": "0x58",
      "l1GasPrice": "0xd",
      "l1GasUsed": "0x640"
    },
    {
      "status": "0x1",
      "cumulativeGasUsed": "0x524097",
      "logs": [
        {
          "address": "0xe4ab69c077896252fafbd49efd26b5d171a32410",
          "topics": [
            "0x8c5be1e5ebec7d5bd14f71427d1e84f3dd0314c0f7b2291e5b200ac8c7c3b925",
            "0x0000000000000000000000003ebf8ffc3f1517f9760dd2bff36f934d19fa6cd8",
            "0x00000000000000000000000037c78afb59a2d66811565ca2431bfa395ed7666b"
          ],
          "data": "0x0000000000000000000000000000000000000000000000000000000000000000",
          "blockHash": "0x0000000000000000000000000000000000000000000000000000000000000000",
          "blockNumber": "0x246adaa",
          "blockTimestamp": "0x69a0ba34",
          "transactionHash": "0xc517fc8b1f14c7ad0217b466f424e356f8ce775738c7b5f31564efade5b0fde6",
          "transactionIndex": "0x15",
          "logIndex": "0x83",
          "removed": false
        },
        {
          "address": "0xe4ab69c077896252fafbd49efd26b5d171a32410",
          "topics": [
            "0xddf252ad1be2c89b69c2b068fc378daa952ba7f163c4a11628f55a4df523b3ef",
            "0x0000000000000000000000003ebf8ffc3f1517f9760dd2bff36f934d19fa6cd8",
            "0x00000000000000000000000037c78afb59a2d66811565ca2431bfa395ed7666b"
          ],
          "data": "0x0000000000000000000000000000000000000000000000001bc16d674ec80000",
          "blockHash": "0x0000000000000000000000000000000000000000000000000000000000000000",
          "blockNumber": "0x246adaa",
          "blockTimestamp": "0x69a0ba34",
          "transactionHash": "0xc517fc8b1f14c7ad0217b466f424e356f8ce775738c7b5f31564efade5b0fde6",
          "transactionIndex": "0x15",
          "logIndex": "0x84",
          "removed": false
        },
        {
          "address": "0x37c78afb59a2d66811565ca2431bfa395ed7666b",
          "topics": [
            "0x50821bd39ba8e71bcc8c0df3f97ac51a110085c3ec0da1c821117a2147c224b9",
            "0x0000000000000000000000003ebf8ffc3f1517f9760dd2bff36f934d19fa6cd8"
          ],
          "data": "0x0000000000000000000000000000000000000000000000001bc16d674ec80000",
          "blockHash": "0x0000000000000000000000000000000000000000000000000000000000000000",
          "blockNumber": "0x246adaa",
          "blockTimestamp": "0x69a0ba34",
          "transactionHash": "0xc517fc8b1f14c7ad0217b466f424e356f8ce775738c7b5f31564efade5b0fde6",
          "transactionIndex": "0x15",
          "logIndex": "0x85",
          "removed": false
        }
      ],
      "logsBloom": "0x00008000000000000000000000000000000000000002000000000000000002000000000000000000000000000000000000000000000000000000000000200000000000000000000000008008000000000000000000000000000000000000000000000600000000000000000000000000000100000000000000000010000000000000000000000000000000000000000100000000000000000000000000000000020000000000000000200000000000000000001000000000020000000000000000000002000000000000000000000000000000000000000000000000000000000010000000000000000000008021000000000000000000000000200000000000",
      "type": "0x2",
      "transactionHash": "0xc517fc8b1f14c7ad0217b466f424e356f8ce775738c7b5f31564efade5b0fde6",
      "transactionIndex": "0x15",
      "blockHash": "0x0000000000000000000000000000000000000000000000000000000000000000",
      "blockNumber": "0x246adaa",
      "gasUsed": "0xe56c",
      "effectiveGasPrice": "0x5b8d80",
      "blobGasUsed": "0x364c",
      "from": "0x3ebf8ffc3f1517f9760dd2bff36f934d19fa6cd8",
      "to": "0x37c78afb59a2d66811565ca2431bfa395ed7666b",
      "contractAddress": null,
      "daFootprintGasScalar": "0x8b",
      "l1BaseFeeScalar": "0x44d",
      "l1BlobBaseFee": "0x1",
      "l1BlobBaseFeeScalar": "0xa118b",
      "l1Fee": "0x58",
      "l1GasPrice": "0xd",
      "l1GasUsed": "0x640"
    },
    {
      "status": "0x1",
      "cumulativeGasUsed": "0x54598b",
      "logs": [
        {
          "address": "0x37c78afb59a2d66811565ca2431bfa395ed7666b",
          "topics": [
            "0x3e8e850f6b70ae0ddd4bcc9e736111c00225be60aab9085691176cb31faaf433",
            "0x000000000000000000000000000000000000000000000000304611b6affba76a"
          ],
          "data": "0x000000000000000000000000000000000000000000000000011c37937e0800000000000000000000000000000000000000000000000000000000000069a0ba34",
          "blockHash": "0x0000000000000000000000000000000000000000000000000000000000000000",
          "blockNumber": "0x246adaa",
          "blockTimestamp": "0x69a0ba34",
          "transactionHash": "0x0ce0b532b194a7891644e2d6495ee6f7bf9d36e16a344ff6b134e0811f5d125d",
          "transactionIndex": "0x16",
          "logIndex": "0x86",
          "removed": false
        }
      ],
      "logsBloom": "0x00000000000000000000000000000000000000000002000000000000000000000000000000000000000000000000000000000000080000000000000000000000000000000000000000000000000000000000000000010000000000000000000000000000008000000000000000000000000000000000000000000000000000000000000000000000000000000000000000000000000000000000000000000000000000000000000000200000000000000000000000000000000000000000000000004000000000000000000000000000000000000000000000000000080000000000000000000000000000000001000000000000000000000000000000200000",
      "type": "0x2",
      "transactionHash": "0x0ce0b532b194a7891644e2d6495ee6f7bf9d36e16a344ff6b134e0811f5d125d",
      "transactionIndex": "0x16",
      "blockHash": "0x0000000000000000000000000000000000000000000000000000000000000000",
      "blockNumber": "0x246adaa",
      "gasUsed": "0x218f4",
      "effectiveGasPrice": "0x5b8d80",
      "blobGasUsed": "0x364c",
      "from": "0x3ebf8ffc3f1517f9760dd2bff36f934d19fa6cd8",
      "to": "0x37c78afb59a2d66811565ca2431bfa395ed7666b",
      "contractAddress": null,
      "daFootprintGasScalar": "0x8b",
      "l1BaseFeeScalar": "0x44d",
      "l1BlobBaseFee": "0x1",
      "l1BlobBaseFeeScalar": "0xa118b",
      "l1Fee": "0x58",
      "l1GasPrice": "0xd",
      "l1GasUsed": "0x640"
    },
    {
      "status": "0x1",
      "cumulativeGasUsed": "0x55ef32",
      "logs": [
        {
          "address": "0x37c78afb59a2d66811565ca2431bfa395ed7666b",
          "topics": [
            "0x3e8e850f6b70ae0ddd4bcc9e736111c00225be60aab9085691176cb31faaf433",
            "0x0000000000000000000000000000000000000000000000008f90b8876dee6538"
          ],
          "data": "0x000000000000000000000000000000000000000000000000006a94d74f4300000000000000000000000000000000000000000000000000000000000069a0ba34",
          "blockHash": "0x0000000000000000000000000000000000000000000000000000000000000000",
          "blockNumber": "0x246adaa",
          "blockTimestamp": "0x69a0ba34",
          "transactionHash": "0x668ebefa5e6f908d331a0a73b6438cb75564cbaabd5031f0d70cd80f75de68e3",
          "transactionIndex": "0x17",
          "logIndex": "0x87",
          "removed": false
        }
      ],
      "logsBloom": "0x00000000000000000000000000000000000000000002000000000000000000000000000000000000000000000000000000000000000000000000000000000000000000000000000000000000000000000000000400010000000000000000200000000000008000000000000000000000000000000000000000000000000000004000000000000000000000000000000000000000000000000000000000000000000000000000000000200000000000000000000000000000000000000000000000004000000000000000000000000000000000000000000000000000000000000000000000000000000000000001000000000000000000000000000000000000",
      "type": "0x2",
      "transactionHash": "0x668ebefa5e6f908d331a0a73b6438cb75564cbaabd5031f0d70cd80f75de68e3",
      "transactionIndex": "0x17",
      "blockHash": "0x0000000000000000000000000000000000000000000000000000000000000000",
      "blockNumber": "0x246adaa",
      "gasUsed": "0x195a7",
      "effectiveGasPrice": "0x5b8d80",
      "blobGasUsed": "0x364c",
      "from": "0x3ebf8ffc3f1517f9760dd2bff36f934d19fa6cd8",
      "to": "0x37c78afb59a2d66811565ca2431bfa395ed7666b",
      "contractAddress": null,
      "daFootprintGasScalar": "0x8b",
      "l1BaseFeeScalar": "0x44d",
      "l1BlobBaseFee": "0x1",
      "l1BlobBaseFeeScalar": "0xa118b",
      "l1Fee": "0x58",
      "l1GasPrice": "0xd",
      "l1GasUsed": "0x640"
    }
  ],
  "libraries": [],
  "pending": [],
  "returns": {},
  "timestamp": 1772141106879,
  "chain": 84532,
  "commit": "3d65528"
}