{
  "transactions": [
    {
      "hash": "0x656103ffeb7f2a41392d7ad94fc45cbb06facd045faec111214e5131df4d3c1b",
      "transactionType": "CALL",
      "contractName": null,
      "contractAddress": "0x6ca798668b46885b40830e98a6a5a8f267d6ed1c",
      "function": "setTrustedVault(uint64,address)",
      "arguments": [
        "3478487238524512106",
        "0x566b1f2AF3b1DEC79C9a2f3e02413F5a7e85aF5F"
      ],
      "transaction": {
        "from": "0x3ebf8ffc3f1517f9760dd2bff36f934d19fa6cd8",
        "to": "0x6ca798668b46885b40830e98a6a5a8f267d6ed1c",
        "gas": "0x1053a",
        "value": "0x0",
        "input": "0x09bce740000000000000000000000000000000000000000000000000304611b6affba76a000000000000000000000000566b1f2af3b1dec79c9a2f3e02413f5a7e85af5f",
        "nonce": "0x60",
        "chainId": "0x14a34"
      },
      "additionalContracts": [],
      "isFixedGasLimit": false
    },
    {
      "hash": "0x45faa29d7e4bb80887569fbce305eeed4838d2c74fe943f1bc18ec8404c6c7ca",
      "transactionType": "CALL",
      "contractName": null,
      "contractAddress": "0xe4ab69c077896252fafbd49efd26b5d171a32410",
      "function": "approve(address,uint256)",
      "arguments": [
        "0x6Ca798668B46885B40830E98A6A5A8F267D6Ed1C",
        "100000000000000000"
      ],
      "transaction": {
        "from": "0x3ebf8ffc3f1517f9760dd2bff36f934d19fa6cd8",
        "to": "0xe4ab69c077896252fafbd49efd26b5d171a32410",
        "gas": "0x108b7",
        "value": "0x0",
        "input": "0x095ea7b30000000000000000000000006ca798668b46885b40830e98a6a5a8f267d6ed1c000000000000000000000000000000000000000000000000016345785d8a0000",
        "nonce": "0x61",
        "chainId": "0x14a34"
      },
      "additionalContracts": [],
      "isFixedGasLimit": false
    },
    {
      "hash": "0x8b694583dcc59a736ae84b69b3c1a2f64a4ba8475084f5d552a95925308dd66a",
      "transactionType": "CALL",
      "contractName": null,
      "contractAddress": "0x6ca798668b46885b40830e98a6a5a8f267d6ed1c",
      "function": "fundLink(uint256)",
      "arguments": [
        "100000000000000000"
      ],
      "transaction": {
        "from": "0x3ebf8ffc3f1517f9760dd2bff36f934d19fa6cd8",
        "to": "0x6ca798668b46885b40830e98a6a5a8f267d6ed1c",
        "gas": "0x13ce2",
        "value": "0x0",
        "input": "0xbb38a1aa000000000000000000000000000000000000000000000000016345785d8a0000",
        "nonce": "0x62",
        "chainId": "0x14a34"
      },
      "additionalContracts": [],
      "isFixedGasLimit": false
    },
    {
      "hash": "0xdc393b1bb5e5bfefd95212bb6f0f357545ea6cc2b9947707904bf0de45c4a542",
      "transactionType": "CALL",
      "contractName": null,
      "contractAddress": "0x6ca798668b46885b40830e98a6a5a8f267d6ed1c",
      "function": "updateYieldData(uint64,uint256)",
      "arguments": [
        "3478487238524512106",
        "80000000000000000"
      ],
      "transaction": {
        "from": "0x3ebf8ffc3f1517f9760dd2bff36f934d19fa6cd8",
        "to": "0x6ca798668b46885b40830e98a6a5a8f267d6ed1c",
        "gas": "0x2e5aa",
        "value": "0x0",
        "input": "0x6e4801b2000000000000000000000000000000000000000000000000304611b6affba76a000000000000000000000000000000000000000000000000011c37937e080000",
        "nonce": "0x63",
        "chainId": "0x14a34"
      },
      "additionalContracts": [],
      "isFixedGasLimit": false
    },
    {
      "hash": "0x07967b13825449251d6e1c6bcae80fb70ac0ca1e3203d6c1908753d32198e4b1",
      "transactionType": "CALL",
      "contractName": null,
      "contractAddress": "0x6ca798668b46885b40830e98a6a5a8f267d6ed1c",
      "function": "updateYieldData(uint64,uint256)",
      "arguments": [
        "10344971235874465080",
        "30000000000000000"
      ],
      "transaction": {
        "from": "0x3ebf8ffc3f1517f9760dd2bff36f934d19fa6cd8",
        "to": "0x6ca798668b46885b40830e98a6a5a8f267d6ed1c",
        "gas": "0x2304e",
        "value": "0x0",
        "input": "0x6e4801b20000000000000000000000000000000000000000000000008f90b8876dee6538000000000000000000000000000000000000000000000000006a94d74f430000",
        "nonce": "0x64",
        "chainId": "0x14a34"
      },
      "additionalContracts": [],
      "isFixedGasLimit": false
    }
  ],
  "receipts": [
    {
      "status": "0x1",
      "cumulativeGasUsed": "0x5300c9",
      "logs": [
        {
          "address": "0x6ca798668b46885b40830e98a6a5a8f267d6ed1c",
          "topics": [
            "0xaca1648a739678727377aa83875460bb23dddb92a88315c7b8d9879162e72ef5"
          ],
          "data": "0x000000000000000000000000000000000000000000000000304611b6affba76a000000000000000000000000566b1f2af3b1dec79c9a2f3e02413f5a7e85af5f",
          "blockHash": "0xf850598461f685a5311c58d8800cf11de1a6acaa0b62bac7853559a02c0f6068",
          "blockNumber": "0x24748dd",
          "blockTimestamp": "0x69a1f09a",
          "transactionHash": "0x656103ffeb7f2a41392d7ad94fc45cbb06facd045faec111214e5131df4d3c1b",
          "transactionIndex": "0x1d",
          "logIndex": "0xad",
          "removed": false
        }
      ],
      "logsBloom": "0x00000000000000000000000000000000000000000000000000000000000000000000000000000000000000000000000000000000000000000000000000000000000000000000000000000000000000000000000000000000001000000000000000000000000000000000000000000000000100001000000000000000000000000000000000000000000000000000000000000000000080000000000000000000000000000000000000000000000000000000000000000000000000000000000000000000000020000000000000000000000000000000000000000000000000000000000001000000000000000000000000000000000000000000000000000000",
      "type": "0x2",
      "transactionHash": "0x656103ffeb7f2a41392d7ad94fc45cbb06facd045faec111214e5131df4d3c1b",
      "transactionIndex": "0x1d",
      "blockHash": "0xf850598461f685a5311c58d8800cf11de1a6acaa0b62bac7853559a02c0f6068",
      "blockNumber": "0x24748dd",
      "gasUsed": "0xbd20",
      "effectiveGasPrice": "0x5b8d80",
      "blobGasUsed": "0x364c",
      "from": "0x3ebf8ffc3f1517f9760dd2bff36f934d19fa6cd8",
      "to": "0x6ca798668b46885b40830e98a6a5a8f267d6ed1c",
      "contractAddress": null,
      "daFootprintGasScalar": "0x8b",
      "l1BaseFeeScalar": "0x44d",
      "l1BlobBaseFee": "0x5",
      "l1BlobBaseFeeScalar": "0xa118b",
      "l1Fee": "0x1d6",
      "l1GasPrice": "0x50",
      "l1GasUsed": "0x640"
    },
    {
      "status": "0x1",
      "cumulativeGasUsed": "0x53b5ca",
      "logs": [
        {
          "address": "0xe4ab69c077896252fafbd49efd26b5d171a32410",
          "topics": [
            "0x8c5be1e5ebec7d5bd14f71427d1e84f3dd0314c0f7b2291e5b200ac8c7c3b925",
            "0x0000000000000000000000003ebf8ffc3f1517f9760dd2bff36f934d19fa6cd8",
            "0x0000000000000000000000006ca798668b46885b40830e98a6a5a8f267d6ed1c"
          ],
          "data": "0x000000000000000000000000000000000000000000000000016345785d8a0000",
          "blockHash": "0xf850598461f685a5311c58d8800cf11de1a6acaa0b62bac7853559a02c0f6068",
          "blockNumber": "0x24748dd",
          "blockTimestamp": "0x69a1f09a",
          "transactionHash": "0x45faa29d7e4bb80887569fbce305eeed4838d2c74fe943f1bc18ec8404c6c7ca",
          "transactionIndex": "0x1e",
          "logIndex": "0xae",
          "removed": false
        }
      ],
      "logsBloom": "0x00008000000000000000000000000000000000000000000000000000000000000000000000000000000000000000000000000000000000000000000000200000000000000000000000000000400000000000000000000000000000000000000000000600000000000000000000000000000000000000000000000000000000000000000000002000000000000000000000000000000000000000000000000000020000000000000000100000000000000000000000000000020000000000000000000000000000000000000000000000000000000000000000000000000000000010000000000000000000008000000000000000000000000000200000000000",
      "type": "0x2",
      "transactionHash": "0x45faa29d7e4bb80887569fbce305eeed4838d2c74fe943f1bc18ec8404c6c7ca",
      "transactionIndex": "0x1e",
      "blockHash": "0xf850598461f685a5311c58d8800cf11de1a6acaa0b62bac7853559a02c0f6068",
      "blockNumber": "0x24748dd",
      "gasUsed": "0xb501",
      "effectiveGasPrice": "0x5b8d80",
      "blobGasUsed": "0x364c",
      "from": "0x3ebf8ffc3f1517f9760dd2bff36f934d19fa6cd8",
      "to": "0xe4ab69c077896252fafbd49efd26b5d171a32410",
      "contractAddress": null,
      "daFootprintGasScalar": "0x8b",
      "l1BaseFeeScalar": "0x44d",
      "l1BlobBaseFee": "0x5",
      "l1BlobBaseFeeScalar": "0xa118b",
      "l1Fee": "0x1d6",
      "l1GasPrice": "0x50",
      "l1GasUsed": "0x640"
    },
    {
      "status": "0x1",
      "cumulativeGasUsed": "0x1ba2e2",
      "logs": [
        {
          "address": "0xe4ab69c077896252fafbd49efd26b5d171a32410",
          "topics": [
            "0x8c5be1e5ebec7d5bd14f71427d1e84f3dd0314c0f7b2291e5b200ac8c7c3b925",
            "0x0000000000000000000000003ebf8ffc3f1517f9760dd2bff36f934d19fa6cd8",
            "0x0000000000000000000000006ca798668b46885b40830e98a6a5a8f267d6ed1c"
          ],
          "data": "0x0000000000000000000000000000000000000000000000000000000000000000",
          "blockHash": "0x0000000000000000000000000000000000000000000000000000000000000000",
          "blockNumber": "0x24748de",
          "blockTimestamp": "0x69a1f09c",
          "transactionHash": "0x8b694583dcc59a736ae84b69b3c1a2f64a4ba8475084f5d552a95925308dd66a",
          "transactionIndex": "0xd",
          "logIndex": "0x34",
          "removed": false
        },
        {
          "address": "0xe4ab69c077896252fafbd49efd26b5d171a32410",
          "topics": [
            "0xddf252ad1be2c89b69c2b068fc378daa952ba7f163c4a11628f55a4df523b3ef",
            "0x0000000000000000000000003ebf8ffc3f1517f9760dd2bff36f934d19fa6cd8",
            "0x0000000000000000000000006ca798668b46885b40830e98a6a5a8f267d6ed1c"
          ],
          "data": "0x000000000000000000000000000000000000000000000000016345785d8a0000",
          "blockHash": "0x0000000000000000000000000000000000000000000000000000000000000000",
          "blockNumber": "0x24748de",
          "blockTimestamp": "0x69a1f09c",
          "transactionHash": "0x8b694583dcc59a736ae84b69b3c1a2f64a4ba8475084f5d552a95925308dd66a",
          "transactionIndex": "0xd",
          "logIndex": "0x35",
          "removed": false
        },
        {
          "address": "0x6ca798668b46885b40830e98a6a5a8f267d6ed1c",
          "topics": [
            "0x50821bd39ba8e71bcc8c0df3f97ac51a110085c3ec0da1c821117a2147c224b9",
            "0x0000000000000000000000003ebf8ffc3f1517f9760dd2bff36f934d19fa6cd8"
          ],
          "data": "0x000000000000000000000000000000000000000000000000016345785d8a0000",
          "blockHash": "0x0000000000000000000000000000000000000000000000000000000000000000",
          "blockNumber": "0x24748de",
          "blockTimestamp": "0x69a1f09c",
          "transactionHash": "0x8b694583dcc59a736ae84b69b3c1a2f64a4ba8475084f5d552a95925308dd66a",
          "transactionIndex": "0xd",
          "logIndex": "0x36",
          "removed": false
        }
      ],
      "logsBloom": "0x00008000000000000000000000000000000000000000000000000000000000000000000000000000000000000000000000000000000000000000000000200000000000000000000000008008400000000000000000000000000000000000000000000600000000000000000000000000000100001000000000000010000000000000000000002000000000000000000000000000000080000000000000000000020000000000000000100000000000000000001000000000020000000000000000000002000000000000000000000000000000000000000000000000000000000010000000000000000000008000000000000000000000000000200000000000",
      "type": "0x2",
      "transactionHash": "0x8b694583dcc59a736ae84b69b3c1a2f64a4ba8475084f5d552a95925308dd66a",
      "transactionIndex": "0xd",
      "blockHash": "0x0000000000000000000000000000000000000000000000000000000000000000",
      "blockNumber": "0x24748de",
      "gasUsed": "0xe56c",
      "effectiveGasPrice": "0x5b8d80",
      "blobGasUsed": "0x364c",
      "from": "0x3ebf8ffc3f1517f9760dd2bff36f934d19fa6cd8",
      "to": "0x6ca798668b46885b40830e98a6a5a8f267d6ed1c",
      "contractAddress": null,
      "daFootprintGasScalar": "0x8b",
      "l1BaseFeeScalar": "0x44d",
      "l1BlobBaseFee": "0x5",
      "l1BlobBaseFeeScalar": "0xa118b",
      "l1Fee": "0x93b",
      "l1GasPrice": "0x50",
      "l1GasUsed": "0x640"
    },
    {
      "status": "0x1",
      "cumulativeGasUsed": "0x1dbbd6",
      "logs": [
        {
          "address": "0x6ca798668b46885b40830e98a6a5a8f267d6ed1c",
          "topics": [
            "0x3e8e850f6b70ae0ddd4bcc9e736111c00225be60aab9085691176cb31faaf433",
            "0x000000000000000000000000000000000000000000000000304611b6affba76a"
          ],
          "data": "0x000000000000000000000000000000000000000000000000011c37937e0800000000000000000000000000000000000000000000000000000000000069a1f09c",
          "blockHash": "0x0000000000000000000000000000000000000000000000000000000000000000",
          "blockNumber": "0x24748de",
          "blockTimestamp": "0x69a1f09c",
          "transactionHash": "0xdc393b1bb5e5bfefd95212bb6f0f357545ea6cc2b9947707904bf0de45c4a542",
          "transactionIndex": "0xe",
          "logIndex": "0x37",
          "removed": false
        }
      ],
      "logsBloom": "0x00000000000000000000000000000000000000000000000000000000000000000000000000000000000000000000000000000000080000000000000000000000000000000000000000000000000000000000000000010000000000000000000000000000008000000000000000000000000100001000000000000000000000000000000000000000000000000000000000000000000080000000000000000000000000000000000000000000000000000000000000000000000000000000000000004000000000000000000000000000000000000000000000000000080000000000000000000000000000000000000000000000000000000000000000200000",
      "type": "0x2",
      "transactionHash": "0xdc393b1bb5e5bfefd95212bb6f0f357545ea6cc2b9947707904bf0de45c4a542",
      "transactionIndex": "0xe",
      "blockHash": "0x0000000000000000000000000000000000000000000000000000000000000000",
      "blockNumber": "0x24748de",
      "gasUsed": "0x218f4",
      "effectiveGasPrice": "0x5b8d80",
      "blobGasUsed": "0x364c",
      "from": "0x3ebf8ffc3f1517f9760dd2bff36f934d19fa6cd8",
      "to": "0x6ca798668b46885b40830e98a6a5a8f267d6ed1c",
      "contractAddress": null,
      "daFootprintGasScalar": "0x8b",
      "l1BaseFeeScalar": "0x44d",
      "l1BlobBaseFee": "0x5",
      "l1BlobBaseFeeScalar": "0xa118b",
      "l1Fee": "0x93b",
      "l1GasPrice": "0x50",
      "l1GasUsed": "0x640"
    },
    {
      "status": "0x1",
      "cumulativeGasUsed": "0x1f517d",
      "logs": [
        {
          "address": "0x6ca798668b46885b40830e98a6a5a8f267d6ed1c",
          "topics": [
            "0x3e8e850f6b70ae0ddd4bcc9e736111c00225be60aab9085691176cb31faaf433",
            "0x0000000000000000000000000000000000000000000000008f90b8876dee6538"
          ],
          "data": "0x000000000000000000000000000000000000000000000000006a94d74f4300000000000000000000000000000000000000000000000000000000000069a1f09c",
          "blockHash": "0x0000000000000000000000000000000000000000000000000000000000000000",
          "blockNumber": "0x24748de",
          "blockTimestamp": "0x69a1f09c",
          "transactionHash": "0x07967b13825449251d6e1c6bcae80fb70ac0ca1e3203d6c1908753d32198e4b1",
          "transactionIndex": "0xf",
          "logIndex": "0x38",
          "removed": false
        }
      ],
      "logsBloom": "0x00000000000000000000000000000000000000000000000000000000000000000000000000000000000000000000000000000000000000000000000000000000000000000000000000000000000000000000000400010000000000000000200000000000008000000000000000000000000100001000000000000000000000004000000000000000000000000000000000000000000080000000000000000000000000000000000000000000000000000000000000000000000000000000000000004000000000000000000000000000000000000000000000000000000000000000000000000000000000000000000000000000000000000000000000000000",
      "type": "0x2",
      "transactionHash": "0x07967b13825449251d6e1c6bcae80fb70ac0ca1e3203d6c1908753d32198e4b1",
      "transactionIndex": "0xf",
      "blockHash": "0x0000000000000000000000000000000000000000000000000000000000000000",
      "blockNumber": "0x24748de",
      "gasUsed": "0x195a7",
      "effectiveGasPrice": "0x5b8d80",
      "blobGasUsed": "0x364c",
      "from": "0x3ebf8ffc3f1517f9760dd2bff36f934d19fa6cd8",
      "to": "0x6ca798668b46885b40830e98a6a5a8f267d6ed1c",
      "contractAddress": null,
      "daFootprintGasScalar": "0x8b",
      "l1BaseFeeScalar": "0x44d",
      "l1BlobBaseFee": "0x5",
      "l1BlobBaseFeeScalar": "0xa118b",
      "l1Fee": "0x93b",
      "l1GasPrice": "0x50",
      "l1GasUsed": "0x640"
    }
  ],
  "libraries": [],
  "pending": [],
  "returns": {},
  "timestamp": 1772220570997,
  "chain": 84532,
  "commit": "8d83af6"
}