{
  "transactions": [
    {
      "hash": "0xfb8a47ee964f0097da481acc466cae8c91226db45f1ef78278bd8d5010e1e907",
      "transactionType": "CALL",
      "contractName": null,
      "contractAddress": "0x566b1f2af3b1dec79c9a2f3e02413f5a7e85af5f",
      "function": "setTrustedVault(uint64,address)",
      "arguments": [
        "10344971235874465080",
        "0x6Ca798668B46885B40830E98A6A5A8F267D6Ed1C"
      ],
      "transaction": {
        "from": "0x3ebf8ffc3f1517f9760dd2bff36f934d19fa6cd8",
        "to": "0x566b1f2af3b1dec79c9a2f3e02413f5a7e85af5f",
        "gas": "0xf7d7",
        "value": "0x0",
        "input": "0x09bce7400000000000000000000000000000000000000000000000008f90b8876dee65380000000000000000000000006ca798668b46885b40830e98a6a5a8f267d6ed1c",
        "nonce": "0x85",
        "chainId": "0x66eee"
      },
      "additionalContracts": [],
      "isFixedGasLimit": false
    },
    {
      "hash": "0xa56c6d7e3490412e2c2d88dc4f8c34c6add45411723b505bcb8246cbe1ac0732",
      "transactionType": "CALL",
      "contractName": null,
      "contractAddress": "0xb1d4538b4571d411f07960ef2838ce337fe1e80e",
      "function": "approve(address,uint256)",
      "arguments": [
        "0x566b1f2AF3b1DEC79C9a2f3e02413F5a7e85aF5F",
        "100000000000000000"
      ],
      "transaction": {
        "from": "0x3ebf8ffc3f1517f9760dd2bff36f934d19fa6cd8",
        "to": "0xb1d4538b4571d411f07960ef2838ce337fe1e80e",
        "gas": "0xecab",
        "value": "0x0",
        "input": "0x095ea7b3000000000000000000000000566b1f2af3b1dec79c9a2f3e02413f5a7e85af5f000000000000000000000000000000000000000000000000016345785d8a0000",
        "nonce": "0x86",
        "chainId": "0x66eee"
      },
      "additionalContracts": [],
      "isFixedGasLimit": false
    },
    {
      "hash": "0x455982c969c678508a1eea62f9cedc7a559b9f4ebfc5408f8206f249c73f7cb0",
      "transactionType": "CALL",
      "contractName": null,
      "contractAddress": "0x566b1f2af3b1dec79c9a2f3e02413f5a7e85af5f",
      "function": "fundLink(uint256)",
      "arguments": [
        "100000000000000000"
      ],
      "transaction": {
        "from": "0x3ebf8ffc3f1517f9760dd2bff36f934d19fa6cd8",
        "to": "0x566b1f2af3b1dec79c9a2f3e02413f5a7e85af5f",
        "gas": "0x13e53",
        "value": "0x0",
        "input": "0xbb38a1aa000000000000000000000000000000000000000000000000016345785d8a0000",
        "nonce": "0x87",
        "chainId": "0x66eee"
      },
      "additionalContracts": [],
      "isFixedGasLimit": false
    },
    {
      "hash": "0x6b2f19928ab99e4a1741097cf8c169654ba36d857d47ba41c087fb8631409db3",
      "transactionType": "CALL",
      "contractName": null,
      "contractAddress": "0x566b1f2af3b1dec79c9a2f3e02413f5a7e85af5f",
      "function": "updateYieldData(uint64,uint256)",
      "arguments": [
        "3478487238524512106",
        "80000000000000000"
      ],
      "transaction": {
        "from": "0x3ebf8ffc3f1517f9760dd2bff36f934d19fa6cd8",
        "to": "0x566b1f2af3b1dec79c9a2f3e02413f5a7e85af5f",
        "gas": "0x2bfc8",
        "value": "0x0",
        "input": "0x6e4801b2000000000000000000000000000000000000000000000000304611b6affba76a000000000000000000000000000000000000000000000000011c37937e080000",
        "nonce": "0x88",
        "chainId": "0x66eee"
      },
      "additionalContracts": [],
      "isFixedGasLimit": false
    },
    {
      "hash": "0x226297bf43316767f11186dac12f87e8171aa4fd9f5da7c2157aeefce6a5d1c5",
      "transactionType": "CALL",
      "contractName": null,
      "contractAddress": "0x566b1f2af3b1dec79c9a2f3e02413f5a7e85af5f",
      "function": "updateYieldData(uint64,uint256)",
      "arguments": [
        "10344971235874465080",
        "30000000000000000"
      ],
      "transaction": {
        "from": "0x3ebf8ffc3f1517f9760dd2bff36f934d19fa6cd8",
        "to": "0x566b1f2af3b1dec79c9a2f3e02413f5a7e85af5f",
        "gas": "0x2bfb8",
        "value": "0x0",
        "input": "0x6e4801b20000000000000000000000000000000000000000000000008f90b8876dee6538000000000000000000000000000000000000000000000000006a94d74f430000",
        "nonce": "0x89",
        "chainId": "0x66eee"
      },
      "additionalContracts": [],
      "isFixedGasLimit": false
    }
  ],
  "receipts": [
    {
      "status": "0x1",
      "cumulativeGasUsed": "0xbd22",
      "logs": [
        {
          "address": "0x566b1f2af3b1dec79c9a2f3e02413f5a7e85af5f",
          "topics": [
            "0xaca1648a739678727377aa83875460bb23dddb92a88315c7b8d9879162e72ef5"
          ],
          "data": "0x0000000000000000000000000000000000000000000000008f90b8876dee65380000000000000000000000006ca798668b46885b40830e98a6a5a8f267d6ed1c",
          "blockHash": "0xaf401247b87da4a2183afbec80a61f3af3c58768a5e2deca5031c5da9a40bd37",
          "blockNumber": "0xea5ae17",
          "blockTimestamp": "0x69a1f02c",
          "transactionHash": "0xfb8a47ee964f0097da481acc466cae8c91226db45f1ef78278bd8d5010e1e907",
          "transactionIndex": "0x1",
          "logIndex": "0x0",
          "removed": false
        }
      ],
      "logsBloom": "0x00000000000000000000000000000000000000000000000000000000000000000000000000000000000000000000000000000000000000000000000000000000000000000000000000000000000000000000000000000000001000000100000000000000000000000000000000000000000000000000000000000000000000000000000000000000000000000000000000000000000000000000000000000000000000000000000000000000000000040000000000000000000000000000000000000000000020000000000000000000000000000000000000000000000000000000000001000000000000000000008000000000000000000000000000000000",
      "type": "0x2",
      "transactionHash": "0xfb8a47ee964f0097da481acc466cae8c91226db45f1ef78278bd8d5010e1e907",
      "transactionIndex": "0x1",
      "blockHash": "0xaf401247b87da4a2183afbec80a61f3af3c58768a5e2deca5031c5da9a40bd37",
      "blockNumber": "0xea5ae17",
      "gasUsed": "0xbd22",
      "effectiveGasPrice": "0x1312d00",
      "from": "0x3ebf8ffc3f1517f9760dd2bff36f934d19fa6cd8",
      "to": "0x566b1f2af3b1dec79c9a2f3e02413f5a7e85af5f",
      "contractAddress": null,
      "gasUsedForL1": "0x2",
      "l1BlockNumber": "0x9dec1b",
      "timeboosted": false
    },
    {
      "status": "0x1",
      "cumulativeGasUsed": "0xb48f",
      "logs": [
        {
          "address": "0xb1d4538b4571d411f07960ef2838ce337fe1e80e",
          "topics": [
            "0x8c5be1e5ebec7d5bd14f71427d1e84f3dd0314c0f7b2291e5b200ac8c7c3b925",
            "0x0000000000000000000000003ebf8ffc3f1517f9760dd2bff36f934d19fa6cd8",
            "0x000000000000000000000000566b1f2af3b1dec79c9a2f3e02413f5a7e85af5f"
          ],
          "data": "0x000000000000000000000000000000000000000000000000016345785d8a0000",
          "blockHash": "0xdecb1b84838e23fd6699ecd0d131485bb962207abd35eea6ca4638698d73cadf",
          "blockNumber": "0xea5ae1d",
          "blockTimestamp": "0x69a1f02e",
          "transactionHash": "0xa56c6d7e3490412e2c2d88dc4f8c34c6add45411723b505bcb8246cbe1ac0732",
          "transactionIndex": "0x1",
          "logIndex": "0x0",
          "removed": false
        }
      ],
      "logsBloom": "0x00000000000000000000000000000000000000000000000000000000000000000000000000000000000000000000000000000000000000000000000000200000000000000000000000000000000000000000000000000080000000000000000000000600000000008000000000000000000000000000000000000000000000000000080000000010000000000000000000000000000000000000000000000000020000000000000000000000000000000000000000000000000000800000000000000000000000000000000000000000000000000000000000000000000000000010000000000000000000008000000000000000000000000000000000000001",
      "type": "0x2",
      "transactionHash": "0xa56c6d7e3490412e2c2d88dc4f8c34c6add45411723b505bcb8246cbe1ac0732",
      "transactionIndex": "0x1",
      "blockHash": "0xdecb1b84838e23fd6699ecd0d131485bb962207abd35eea6ca4638698d73cadf",
      "blockNumber": "0xea5ae1d",
      "gasUsed": "0xb48f",
      "effectiveGasPrice": "0x131a230",
      "from": "0x3ebf8ffc3f1517f9760dd2bff36f934d19fa6cd8",
      "to": "0xb1d4538b4571d411f07960ef2838ce337fe1e80e",
      "contractAddress": null,
      "gasUsedForL1": "0x2",
      "l1BlockNumber": "0x9dec1b",
      "timeboosted": false
    },
    {
      "status": "0x1",
      "cumulativeGasUsed": "0x25db7",
      "logs": [
        {
          "address": "0xb1d4538b4571d411f07960ef2838ce337fe1e80e",
          "topics": [
            "0xddf252ad1be2c89b69c2b068fc378daa952ba7f163c4a11628f55a4df523b3ef",
            "0x0000000000000000000000003ebf8ffc3f1517f9760dd2bff36f934d19fa6cd8",
            "0x000000000000000000000000566b1f2af3b1dec79c9a2f3e02413f5a7e85af5f"
          ],
          "data": "0x000000000000000000000000000000000000000000000000016345785d8a0000",
          "blockHash": "0x723bf3d12a61d9f900706d13e655e9395c1a8a9d3139966e084571f11e5df976",
          "blockNumber": "0xea5ae22",
          "blockTimestamp": "0x69a1f02f",
          "transactionHash": "0x455982c969c678508a1eea62f9cedc7a559b9f4ebfc5408f8206f249c73f7cb0",
          "transactionIndex": "0x2",
          "logIndex": "0x4",
          "removed": false
        },
        {
          "address": "0xb1d4538b4571d411f07960ef2838ce337fe1e80e",
          "topics": [
            "0x8c5be1e5ebec7d5bd14f71427d1e84f3dd0314c0f7b2291e5b200ac8c7c3b925",
            "0x0000000000000000000000003ebf8ffc3f1517f9760dd2bff36f934d19fa6cd8",
            "0x000000000000000000000000566b1f2af3b1dec79c9a2f3e02413f5a7e85af5f"
          ],
          "data": "0x0000000000000000000000000000000000000000000000000000000000000000",
          "blockHash": "0x723bf3d12a61d9f900706d13e655e9395c1a8a9d3139966e084571f11e5df976",
          "blockNumber": "0xea5ae22",
          "blockTimestamp": "0x69a1f02f",
          "transactionHash": "0x455982c969c678508a1eea62f9cedc7a559b9f4ebfc5408f8206f249c73f7cb0",
          "transactionIndex": "0x2",
          "logIndex": "0x5",
          "removed": false
        },
        {
          "address": "0x566b1f2af3b1dec79c9a2f3e02413f5a7e85af5f",
          "topics": [
            "0x50821bd39ba8e71bcc8c0df3f97ac51a110085c3ec0da1c821117a2147c224b9",
            "0x0000000000000000000000003ebf8ffc3f1517f9760dd2bff36f934d19fa6cd8"
          ],
          "data": "0x000000000000000000000000000000000000000000000000016345785d8a0000",
          "blockHash": "0x723bf3d12a61d9f900706d13e655e9395c1a8a9d3139966e084571f11e5df976",
          "blockNumber": "0xea5ae22",
          "blockTimestamp": "0x69a1f02f",
          "transactionHash": "0x455982c969c678508a1eea62f9cedc7a559b9f4ebfc5408f8206f249c73f7cb0",
          "transactionIndex": "0x2",
          "logIndex": "0x6",
          "removed": false
        }
      ],
      "logsBloom": "0x00000000000000000000000000000000000000000000000000000000000000000000000000000000000000000000000000000000000000000000000000200000000000000000000000008008000000000000000000000080000000000100000000000600000000008000000000000000000100000000000000000010000000000000080000000010000000000000000000000000000000000000000000000000020000000000000000000000000000040000001000000000000000800000000000000002000000000000000000000000000000000000000000000000000000000010000000000000000000008000008000000000000000000000000000000001",
      "type": "0x2",
      "transactionHash": "0x455982c969c678508a1eea62f9cedc7a559b9f4ebfc5408f8206f249c73f7cb0",
      "transactionIndex": "0x2",
      "blockHash": "0x723bf3d12a61d9f900706d13e655e9395c1a8a9d3139966e084571f11e5df976",
      "blockNumber": "0xea5ae22",
      "gasUsed": "0xe679",
      "effectiveGasPrice": "0x1312d00",
      "from": "0x3ebf8ffc3f1517f9760dd2bff36f934d19fa6cd8",
      "to": "0x566b1f2af3b1dec79c9a2f3e02413f5a7e85af5f",
      "contractAddress": null,
      "gasUsedForL1": "0x2",
      "l1BlockNumber": "0x9dec1b",
      "timeboosted": false
    },
    {
      "status": "0x1",
      "cumulativeGasUsed": "0x218f6",
      "logs": [
        {
          "address": "0x566b1f2af3b1dec79c9a2f3e02413f5a7e85af5f",
          "topics": [
            "0x3e8e850f6b70ae0ddd4bcc9e736111c00225be60aab9085691176cb31faaf433",
            "0x000000000000000000000000000000000000000000000000304611b6affba76a"
          ],
          "data": "0x000000000000000000000000000000000000000000000000011c37937e0800000000000000000000000000000000000000000000000000000000000069a1f030",
          "blockHash": "0xf889c8df2f380da0d3adbfe5f2e569e632b18332507eb5d5d19f49f92ec2c258",
          "blockNumber": "0xea5ae24",
          "blockTimestamp": "0x69a1f030",
          "transactionHash": "0x6b2f19928ab99e4a1741097cf8c169654ba36d857d47ba41c087fb8631409db3",
          "transactionIndex": "0x1",
          "logIndex": "0x0",
          "removed": false
        }
      ],
      "logsBloom": "0x00000000000000000000000000000000000000000000000000000000000000000000000000000000000000000000000000000000080000000000000000000000000000000000000000000000000000000000000000010000000000000100000000000000008000000000000000000000000000000000000000000000000000000000000000000000000000000000000000000000000000000000000000000000000000000000000000000000000000040000000000000000000000000000000000004000000000000000000000000000000000000000000000000000080000000000000000000000000000000000008000000000000000000000000000200000",
      "type": "0x2",
      "transactionHash": "0x6b2f19928ab99e4a1741097cf8c169654ba36d857d47ba41c087fb8631409db3",
      "transactionIndex": "0x1",
      "blockHash": "0xf889c8df2f380da0d3adbfe5f2e569e632b18332507eb5d5d19f49f92ec2c258",
      "blockNumber": "0xea5ae24",
      "gasUsed": "0x218f6",
      "effectiveGasPrice": "0x1315410",
      "from": "0x3ebf8ffc3f1517f9760dd2bff36f934d19fa6cd8",
      "to": "0x566b1f2af3b1dec79c9a2f3e02413f5a7e85af5f",
      "contractAddress": null,
      "gasUsedForL1": "0x2",
      "l1BlockNumber": "0x9dec1b",
      "timeboosted": false
    },
    {
      "status": "0x1",
      "cumulativeGasUsed": "0x195a9",
      "logs": [
        {
          "address": "0x566b1f2af3b1dec79c9a2f3e02413f5a7e85af5f",
          "topics": [
            "0x3e8e850f6b70ae0ddd4bcc9e736111c00225be60aab9085691176cb31faaf433",
            "0x0000000000000000000000000000000000000000000000008f90b8876dee6538"
          ],
          "data": "0x000000000000000000000000000000000000000000000000006a94d74f4300000000000000000000000000000000000000000000000000000000000069a1f031",
          "blockHash": "0x2b6a3045c7dbbdebd40551679ac8d4347bedbfdc9dbfe82dfa2ce5e749ae136a",
          "blockNumber": "0xea5ae29",
          "blockTimestamp": "0x69a1f031",
          "transactionHash": "0x226297bf43316767f11186dac12f87e8171aa4fd9f5da7c2157aeefce6a5d1c5",
          "transactionIndex": "0x1",
          "logIndex": "0x0",
          "removed": false
        }
      ],
      "logsBloom": "0x00000000000000000000000000000000000000000000000000000000000000000000000000000000000000000000000000000000000000000000000000000000000000000000000000000000000000000000000400010000000000000100200000000000008000000000000000000000000000000000000000000000000000004000000000000000000000000000000000000000000000000000000000000000000000000000000000000000000000040000000000000000000000000000000000004000000000000000000000000000000000000000000000000000000000000000000000000000000000000000008000000000000000000000000000000000",
      "type": "0x2",
      "transactionHash": "0x226297bf43316767f11186dac12f87e8171aa4fd9f5da7c2157aeefce6a5d1c5",
      "transactionIndex": "0x1",
      "blockHash": "0x2b6a3045c7dbbdebd40551679ac8d4347bedbfdc9dbfe82dfa2ce5e749ae136a",
      "blockNumber": "0xea5ae29",
      "gasUsed": "0x195a9",
      "effectiveGasPrice": "0x1314470",
      "from": "0x3ebf8ffc3f1517f9760dd2bff36f934d19fa6cd8",
      "to": "0x566b1f2af3b1dec79c9a2f3e02413f5a7e85af5f",
      "contractAddress": null,
      "gasUsedForL1": "0x2",
      "l1BlockNumber": "0x9dec1b",
      "timeboosted": false
    }
  ],
  "libraries": [],
  "pending": [],
  "returns": {},
  "timestamp": 1772220466161,
  "chain": 421614,
  "commit": "8d83af6"
}