{
  "transactions": [
    {
      "hash": "0x35157b8764fca1de8e9dafc38b19b337843efcb5b328a51d5b5805da471b6210",
      "transactionType": "CALL",
      "contractName": null,
      "contractAddress": "0x9054d9b7021ef4fda7936831680f2e7d3c692242",
      "function": "setTrustedVault(uint64,address)",
      "arguments": [
        "10344971235874465080",
        "0x6Ca798668B46885B40830E98A6A5A8F267D6Ed1C"
      ],
      "transaction": {
        "from": "0x3ebf8ffc3f1517f9760dd2bff36f934d19fa6cd8",
        "to": "0x9054d9b7021ef4fda7936831680f2e7d3c692242",
        "gas": "0xf7d6",
        "value": "0x0",
        "input": "0x09bce7400000000000000000000000000000000000000000000000008f90b8876dee65380000000000000000000000006ca798668b46885b40830e98a6a5a8f267d6ed1c",
        "nonce": "0x91",
        "chainId": "0x66eee"
      },
      "additionalContracts": [],
      "isFixedGasLimit": false
    },
    {
      "hash": "0x80e9f6d8641f5f5897c8a4e7aaf8c98322105735113682366e58c7465c48e37c",
      "transactionType": "CALL",
      "contractName": null,
      "contractAddress": "0xb1d4538b4571d411f07960ef2838ce337fe1e80e",
      "function": "approve(address,uint256)",
      "arguments": [
        "0x9054d9B7021EF4FDa7936831680F2E7d3C692242",
        "100000000000000000"
      ],
      "transaction": {
        "from": "0x3ebf8ffc3f1517f9760dd2bff36f934d19fa6cd8",
        "to": "0xb1d4538b4571d411f07960ef2838ce337fe1e80e",
        "gas": "0xecaa",
        "value": "0x0",
        "input": "0x095ea7b30000000000000000000000009054d9b7021ef4fda7936831680f2e7d3c692242000000000000000000000000000000000000000000000000016345785d8a0000",
        "nonce": "0x92",
        "chainId": "0x66eee"
      },
      "additionalContracts": [],
      "isFixedGasLimit": false
    },
    {
      "hash": "0xd1c0621294caace1397ff5e2218c3fd30822408efdfc566e8ee459cfa7c6cde5",
      "transactionType": "CALL",
      "contractName": null,
      "contractAddress": "0x9054d9b7021ef4fda7936831680f2e7d3c692242",
      "function": "fundLink(uint256)",
      "arguments": [
        "100000000000000000"
      ],
      "transaction": {
        "from": "0x3ebf8ffc3f1517f9760dd2bff36f934d19fa6cd8",
        "to": "0x9054d9b7021ef4fda7936831680f2e7d3c692242",
        "gas": "0x13e53",
        "value": "0x0",
        "input": "0xbb38a1aa000000000000000000000000000000000000000000000000016345785d8a0000",
        "nonce": "0x93",
        "chainId": "0x66eee"
      },
      "additionalContracts": [],
      "isFixedGasLimit": false
    },
    {
      "hash": "0xc4b0a3a8cd672f4430200844be0ab3eeb0e342b1df9dc54338930f9a21175550",
      "transactionType": "CALL",
      "contractName": null,
      "contractAddress": "0x9054d9b7021ef4fda7936831680f2e7d3c692242",
      "function": "updateYieldData(uint64,uint256)",
      "arguments": [
        "3478487238524512106",
        "80000000000000000"
      ],
      "transaction": {
        "from": "0x3ebf8ffc3f1517f9760dd2bff36f934d19fa6cd8",
        "to": "0x9054d9b7021ef4fda7936831680f2e7d3c692242",
        "gas": "0x2bfc7",
        "value": "0x0",
        "input": "0x6e4801b2000000000000000000000000000000000000000000000000304611b6affba76a000000000000000000000000000000000000000000000000011c37937e080000",
        "nonce": "0x94",
        "chainId": "0x66eee"
      },
      "additionalContracts": [],
      "isFixedGasLimit": false
    },
    {
      "hash": "0x7f4c61ba38d93e86c6d15d6502b171f2f822585423d22a31c237cd454363224d",
      "transactionType": "CALL",
      "contractName": null,
      "contractAddress": "0x9054d9b7021ef4fda7936831680f2e7d3c692242",
      "function": "updateYieldData(uint64,uint256)",
      "arguments": [
        "10344971235874465080",
        "30000000000000000"
      ],
      "transaction": {
        "from": "0x3ebf8ffc3f1517f9760dd2bff36f934d19fa6cd8",
        "to": "0x9054d9b7021ef4fda7936831680f2e7d3c692242",
        "gas": "0x2bfb7",
        "value": "0x0",
        "input": "0x6e4801b20000000000000000000000000000000000000000000000008f90b8876dee6538000000000000000000000000000000000000000000000000006a94d74f430000",
        "nonce": "0x95",
        "chainId": "0x66eee"
      },
      "additionalContracts": [],
      "isFixedGasLimit": false
    }
  ],
  "receipts": [
    {
      "status": "0x1",
      "cumulativeGasUsed": "0xbd22",
      "logs": [
        {
          "address": "0x9054d9b7021ef4fda7936831680f2e7d3c692242",
          "topics": [
            "0xaca1648a739678727377aa83875460bb23dddb92a88315c7b8d9879162e72ef5"
          ],
          "data": "0x0000000000000000000000000000000000000000000000008f90b8876dee65380000000000000000000000006ca798668b46885b40830e98a6a5a8f267d6ed1c",
          "blockHash": "0xede5476cbbbf65776aec1e98311d3cf96baa38431b7ccaf9ef3e1b6e33d28c80",
          "blockNumber": "0xea5c1c6",
          "blockTimestamp": "0x69a1f79f",
          "transactionHash": "0x35157b8764fca1de8e9dafc38b19b337843efcb5b328a51d5b5805da471b6210",
          "transactionIndex": "0x1",
          "logIndex": "0x0",
          "removed": false
        }
      ],
      "logsBloom": "0x00000000000000000000000000000000000000000000000000000000000000000000000000000000000000000000000000000000000000000000000000000000000000000000000000000000000000000100000000000000001000000000000000000000000000000000000000000000000000000000000000000000000000000000000000000000000000000000000000000000000000000000000000000000000000040000000000000000000000000000000000000000000000000000000000000000000020000000000000010000000000000000000000000000000000000000000001000000000000000000000000000000000000000000000000000000",
      "type": "0x2",
      "transactionHash": "0x35157b8764fca1de8e9dafc38b19b337843efcb5b328a51d5b5805da471b6210",
      "transactionIndex": "0x1",
      "blockHash": "0xede5476cbbbf65776aec1e98311d3cf96baa38431b7ccaf9ef3e1b6e33d28c80",
      "blockNumber": "0xea5c1c6",
      "gasUsed": "0xbd22",
      "effectiveGasPrice": "0x1757960",
      "from": "0x3ebf8ffc3f1517f9760dd2bff36f934d19fa6cd8",
      "to": "0x9054d9b7021ef4fda7936831680f2e7d3c692242",
      "contractAddress": null,
      "gasUsedForL1": "0x2",
      "l1BlockNumber": "0x9decb3",
      "timeboosted": false
    },
    {
      "status": "0x1",
      "cumulativeGasUsed": "0xb48f",
      "logs": [
        {
          "address": "0xb1d4538b4571d411f07960ef2838ce337fe1e80e",
          "topics": [
            "0x8c5be1e5ebec7d5bd14f71427d1e84f3dd0314c0f7b2291e5b200ac8c7c3b925",
            "0x0000000000000000000000003ebf8ffc3f1517f9760dd2bff36f934d19fa6cd8",
            "0x0000000000000000000000009054d9b7021ef4fda7936831680f2e7d3c692242"
          ],
          "data": "0x000000000000000000000000000000000000000000000000016345785d8a0000",
          "blockHash": "0xd105c3fa8bdc5674b2f2d5a1cfa4c377624a692b33d70b6189f3854f9a0a005f",
          "blockNumber": "0xea5c1c9",
          "blockTimestamp": "0x69a1f7a0",
          "transactionHash": "0x80e9f6d8641f5f5897c8a4e7aaf8c98322105735113682366e58c7465c48e37c",
          "transactionIndex": "0x1",
          "logIndex": "0x0",
          "removed": false
        }
      ],
      "logsBloom": "0x00000200000000020000000000000000000000000000000000000000000000000000000000000000000000000000000000000000000000000000000000200000000000000000000000000000000000000000000000000000000000000000000000000600000000000000000000000000000000000000000000000200000000000000080000000010000000000000000000000000000000000000000000000000020000000000000000000000000000000000000000000000000000000000000000000000000000000000000000000000000000000000000000000000000000000010000000000000000000008000000000000000000000000000000000000001",
      "type": "0x2",
      "transactionHash": "0x80e9f6d8641f5f5897c8a4e7aaf8c98322105735113682366e58c7465c48e37c",
      "transactionIndex": "0x1",
      "blockHash": "0xd105c3fa8bdc5674b2f2d5a1cfa4c377624a692b33d70b6189f3854f9a0a005f",
      "blockNumber": "0xea5c1c9",
      "gasUsed": "0xb48f",
      "effectiveGasPrice": "0x172d1b0",
      "from": "0x3ebf8ffc3f1517f9760dd2bff36f934d19fa6cd8",
      "to": "0xb1d4538b4571d411f07960ef2838ce337fe1e80e",
      "contractAddress": null,
      "gasUsedForL1": "0x2",
      "l1BlockNumber": "0x9decb3",
      "timeboosted": false
    },
    {
      "status": "0x1",
      "cumulativeGasUsed": "0xe678",
      "logs": [
        {
          "address": "0xb1d4538b4571d411f07960ef2838ce337fe1e80e",
          "topics": [
            "0xddf252ad1be2c89b69c2b068fc378daa952ba7f163c4a11628f55a4df523b3ef",
            "0x0000000000000000000000003ebf8ffc3f1517f9760dd2bff36f934d19fa6cd8",
            "0x0000000000000000000000009054d9b7021ef4fda7936831680f2e7d3c692242"
          ],
          "data": "0x000000000000000000000000000000000000000000000000016345785d8a0000",
          "blockHash": "0xb3d80ace0f58790fe64b79a7612def66b389a9bfaeed8b121ab8848433286ff0",
          "blockNumber": "0xea5c1cc",
          "blockTimestamp": "0x69a1f7a1",
          "transactionHash": "0xd1c0621294caace1397ff5e2218c3fd30822408efdfc566e8ee459cfa7c6cde5",
          "transactionIndex": "0x1",
          "logIndex": "0x0",
          "removed": false
        },
        {
          "address": "0xb1d4538b4571d411f07960ef2838ce337fe1e80e",
          "topics": [
            "0x8c5be1e5ebec7d5bd14f71427d1e84f3dd0314c0f7b2291e5b200ac8c7c3b925",
            "0x0000000000000000000000003ebf8ffc3f1517f9760dd2bff36f934d19fa6cd8",
            "0x0000000000000000000000009054d9b7021ef4fda7936831680f2e7d3c692242"
          ],
          "data": "0x0000000000000000000000000000000000000000000000000000000000000000",
          "blockHash": "0xb3d80ace0f58790fe64b79a7612def66b389a9bfaeed8b121ab8848433286ff0",
          "blockNumber": "0xea5c1cc",
          "blockTimestamp": "0x69a1f7a1",
          "transactionHash": "0xd1c0621294caace1397ff5e2218c3fd30822408efdfc566e8ee459cfa7c6cde5",
          "transactionIndex": "0x1",
          "logIndex": "0x1",
          "removed": false
        },
        {
          "address": "0x9054d9b7021ef4fda7936831680f2e7d3c692242",
          "topics": [
            "0x50821bd39ba8e71bcc8c0df3f97ac51a110085c3ec0da1c821117a2147c224b9",
            "0x0000000000000000000000003ebf8ffc3f1517f9760dd2bff36f934d19fa6cd8"
          ],
          "data": "0x000000000000000000000000000000000000000000000000016345785d8a0000",
          "blockHash": "0xb3d80ace0f58790fe64b79a7612def66b389a9bfaeed8b121ab8848433286ff0",
          "blockNumber": "0xea5c1cc",
          "blockTimestamp": "0x69a1f7a1",
          "transactionHash": "0xd1c0621294caace1397ff5e2218c3fd30822408efdfc566e8ee459cfa7c6cde5",
          "transactionIndex": "0x1",
          "logIndex": "0x2",
          "removed": false
        }
      ],
      "logsBloom": "0x00000200000000020000000000000000000000000000000000000000000000000000000000000000000000000000000000000000000000000000000000200000000000000000000000008008000000000100000000000000000000000000000000000600000000000000000000000000000100000000000000000210000000000000080000000010000000000000000000000000000000000000000000000000020000040000000000000000000000000000001000000000000000000000000000000002000000000000000000010000000000000000000000000000000000000010000000000000000000008000000000000000000000000000000000000001",
      "type": "0x2",
      "transactionHash": "0xd1c0621294caace1397ff5e2218c3fd30822408efdfc566e8ee459cfa7c6cde5",
      "transactionIndex": "0x1",
      "blockHash": "0xb3d80ace0f58790fe64b79a7612def66b389a9bfaeed8b121ab8848433286ff0",
      "blockNumber": "0xea5c1cc",
      "gasUsed": "0xe678",
      "effectiveGasPrice": "0x1719160",
      "from": "0x3ebf8ffc3f1517f9760dd2bff36f934d19fa6cd8",
      "to": "0x9054d9b7021ef4fda7936831680f2e7d3c692242",
      "contractAddress": null,
      "gasUsedForL1": "0x1",
      "l1BlockNumber": "0x9decb3",
      "timeboosted": false
    },
    {
      "status": "0x1",
      "cumulativeGasUsed": "0x218f6",
      "logs": [
        {
          "address": "0x9054d9b7021ef4fda7936831680f2e7d3c692242",
          "topics": [
            "0x3e8e850f6b70ae0ddd4bcc9e736111c00225be60aab9085691176cb31faaf433",
            "0x000000000000000000000000000000000000000000000000304611b6affba76a"
          ],
          "data": "0x000000000000000000000000000000000000000000000000011c37937e0800000000000000000000000000000000000000000000000000000000000069a1f7a3",
          "blockHash": "0x23c4960d6010529d4152d0dfbc4d6833455f28df0e829c8aca24474ba469eaf2",
          "blockNumber": "0xea5c1cd",
          "blockTimestamp": "0x69a1f7a3",
          "transactionHash": "0xc4b0a3a8cd672f4430200844be0ab3eeb0e342b1df9dc54338930f9a21175550",
          "transactionIndex": "0x1",
          "logIndex": "0x0",
          "removed": false
        }
      ],
      "logsBloom": "0x00000000000000000000000000000000000000000000000000000000000000000000000000000000000000000000000000000000080000000000000000000000000000000000000000000000000000000100000000010000000000000000000000000000008000000000000000000000000000000000000000000000000000000000000000000000000000000000000000000000000000000000000000000000000000040000000000000000000000000000000000000000000000000000000000004000000000000000000000010000000000000000000000000000080000000000000000000000000000000000000000000000000000000000000000200000",
      "type": "0x2",
      "transactionHash": "0xc4b0a3a8cd672f4430200844be0ab3eeb0e342b1df9dc54338930f9a21175550",
      "transactionIndex": "0x1",
      "blockHash": "0x23c4960d6010529d4152d0dfbc4d6833455f28df0e829c8aca24474ba469eaf2",
      "blockNumber": "0xea5c1cd",
      "gasUsed": "0x218f6",
      "effectiveGasPrice": "0x171c810",
      "from": "0x3ebf8ffc3f1517f9760dd2bff36f934d19fa6cd8",
      "to": "0x9054d9b7021ef4fda7936831680f2e7d3c692242",
      "contractAddress": null,
      "gasUsedForL1": "0x2",
      "l1BlockNumber": "0x9decb3",
      "timeboosted": false
    },
    {
      "status": "0x1",
      "cumulativeGasUsed": "0x195a9",
      "logs": [
        {
          "address": "0x9054d9b7021ef4fda7936831680f2e7d3c692242",
          "topics": [
            "0x3e8e850f6b70ae0ddd4bcc9e736111c00225be60aab9085691176cb31faaf433",
            "0x0000000000000000000000000000000000000000000000008f90b8876dee6538"
          ],
          "data": "0x000000000000000000000000000000000000000000000000006a94d74f4300000000000000000000000000000000000000000000000000000000000069a1f7a4",
          "blockHash": "0x505fc7557b83a6fe421503b7ed6dd144ac09bcaa57420d89742cbc44b591da73",
          "blockNumber": "0xea5c1d1",
          "blockTimestamp": "0x69a1f7a4",
          "transactionHash": "0x7f4c61ba38d93e86c6d15d6502b171f2f822585423d22a31c237cd454363224d",
          "transactionIndex": "0x1",
          "logIndex": "0x0",
          "removed": false
        }
      ],
      "logsBloom": "0x00000000000000000000000000000000000000000000000000000000000000000000000000000000000000000000000000000000000000000000000000000000000000000000000000000000000000000100000400010000000000000000200000000000008000000000000000000000000000000000000000000000000000004000000000000000000000000000000000000000000000000000000000000000000000040000000000000000000000000000000000000000000000000000000000004000000000000000000000010000000000000000000000000000000000000000000000000000000000000000000000000000000000000000000000000000",
      "type": "0x2",
      "transactionHash": "0x7f4c61ba38d93e86c6d15d6502b171f2f822585423d22a31c237cd454363224d",
      "transactionIndex": "0x1",
      "blockHash": "0x505fc7557b83a6fe421503b7ed6dd144ac09bcaa57420d89742cbc44b591da73",
      "blockNumber": "0xea5c1d1",
      "gasUsed": "0x195a9",
      "effectiveGasPrice": "0x16dd070",
      "from": "0x3ebf8ffc3f1517f9760dd2bff36f934d19fa6cd8",
      "to": "0x9054d9b7021ef4fda7936831680f2e7d3c692242",
      "contractAddress": null,
      "gasUsedForL1": "0x2",
      "l1BlockNumber": "0x9decb3",
      "timeboosted": false
    }
  ],
  "libraries": [],
  "pending": [],
  "returns": {},
  "timestamp": 1772222373080,
  "chain": 421614,
  "commit": "8d83af6"
}