{
  "transactions": [
    {
      "hash": "0xfffc5b6c7a215ae4f0e36c287aefe333403a78619836294287d13d27658ebeac",
      "transactionType": "CALL",
      "contractName": null,
      "contractAddress": "0xd17ddca638674459608e506e58c0e916156a83eb",
      "function": "setTrustedVault(uint64,address)",
      "arguments": [
        "10344971235874465080",
        "0x6Ca798668B46885B40830E98A6A5A8F267D6Ed1C"
      ],
      "transaction": {
        "from": "0x3ebf8ffc3f1517f9760dd2bff36f934d19fa6cd8",
        "to": "0xd17ddca638674459608e506e58c0e916156a83eb",
        "gas": "0xf7d9",
        "value": "0x0",
        "input": "0x09bce7400000000000000000000000000000000000000000000000008f90b8876dee65380000000000000000000000006ca798668b46885b40830e98a6a5a8f267d6ed1c",
        "nonce": "0x98",
        "chainId": "0x66eee"
      },
      "additionalContracts": [],
      "isFixedGasLimit": false
    },
    {
      "hash": "0x9139c6156317af556e0a0c40fe530aaae20305537465aa64fa8c4dabc9a69176",
      "transactionType": "CALL",
      "contractName": null,
      "contractAddress": "0xb1d4538b4571d411f07960ef2838ce337fe1e80e",
      "function": "approve(address,uint256)",
      "arguments": [
        "0xD17ddCa638674459608E506e58c0e916156A83eb",
        "100000000000000000"
      ],
      "transaction": {
        "from": "0x3ebf8ffc3f1517f9760dd2bff36f934d19fa6cd8",
        "to": "0xb1d4538b4571d411f07960ef2838ce337fe1e80e",
        "gas": "0xecad",
        "value": "0x0",
        "input": "0x095ea7b3000000000000000000000000d17ddca638674459608e506e58c0e916156a83eb000000000000000000000000000000000000000000000000016345785d8a0000",
        "nonce": "0x99",
        "chainId": "0x66eee"
      },
      "additionalContracts": [],
      "isFixedGasLimit": false
    },
    {
      "hash": "0xb5ec256c16adce5229d46c44e10fa5b46b38a666b28949aec0d39c1b42f705d7",
      "transactionType": "CALL",
      "contractName": null,
      "contractAddress": "0xd17ddca638674459608e506e58c0e916156a83eb",
      "function": "fundLink(uint256)",
      "arguments": [
        "100000000000000000"
      ],
      "transaction": {
        "from": "0x3ebf8ffc3f1517f9760dd2bff36f934d19fa6cd8",
        "to": "0xd17ddca638674459608e506e58c0e916156a83eb",
        "gas": "0x13e53",
        "value": "0x0",
        "input": "0xbb38a1aa000000000000000000000000000000000000000000000000016345785d8a0000",
        "nonce": "0x9a",
        "chainId": "0x66eee"
      },
      "additionalContracts": [],
      "isFixedGasLimit": false
    },
    {
      "hash": "0xe9fc1241a67017e8a500c0e7b203224636e547295f9dd052e4892fd7b74d3c56",
      "transactionType": "CALL",
      "contractName": null,
      "contractAddress": "0xd17ddca638674459608e506e58c0e916156a83eb",
      "function": "updateYieldData(uint64,uint256)",
      "arguments": [
        "3478487238524512106",
        "80000000000000000"
      ],
      "transaction": {
        "from": "0x3ebf8ffc3f1517f9760dd2bff36f934d19fa6cd8",
        "to": "0xd17ddca638674459608e506e58c0e916156a83eb",
        "gas": "0x2bfc9",
        "value": "0x0",
        "input": "0x6e4801b2000000000000000000000000000000000000000000000000304611b6affba76a000000000000000000000000000000000000000000000000011c37937e080000",
        "nonce": "0x9b",
        "chainId": "0x66eee"
      },
      "additionalContracts": [],
      "isFixedGasLimit": false
    },
    {
      "hash": "0xeab08f3decda47bf90880b6fe21e460c74f6ee1b8c4d6391c96d4ae915a458fb",
      "transactionType": "CALL",
      "contractName": null,
      "contractAddress": "0xd17ddca638674459608e506e58c0e916156a83eb",
      "function": "updateYieldData(uint64,uint256)",
      "arguments": [
        "10344971235874465080",
        "30000000000000000"
      ],
      "transaction": {
        "from": "0x3ebf8ffc3f1517f9760dd2bff36f934d19fa6cd8",
        "to": "0xd17ddca638674459608e506e58c0e916156a83eb",
        "gas": "0x2bfba",
        "value": "0x0",
        "input": "0x6e4801b20000000000000000000000000000000000000000000000008f90b8876dee6538000000000000000000000000000000000000000000000000006a94d74f430000",
        "nonce": "0x9c",
        "chainId": "0x66eee"
      },
      "additionalContracts": [],
      "isFixedGasLimit": false
    }
  ],
  "receipts": [
    {
      "status": "0x1",
      "cumulativeGasUsed": "0x31f7e",
      "logs": [
        {
          "address": "0xd17ddca638674459608e506e58c0e916156a83eb",
          "topics": [
            "0xaca1648a739678727377aa83875460bb23dddb92a88315c7b8d9879162e72ef5"
          ],
          "data": "0x0000000000000000000000000000000000000000000000008f90b8876dee65380000000000000000000000006ca798668b46885b40830e98a6a5a8f267d6ed1c",
          "blockHash": "0xa2f14dfc77cd9208bae154fade1da4873f811604eac4b120419cdbc1731eb3b5",
          "blockNumber": "0xea5c8c7",
          "blockTimestamp": "0x69a1f9ef",
          "transactionHash": "0xfffc5b6c7a215ae4f0e36c287aefe333403a78619836294287d13d27658ebeac",
          "transactionIndex": "0x2",
          "logIndex": "0x4",
          "removed": false
        }
      ],
      "logsBloom": "0x00000000000000000000000000000000000000000000000000000000000000000000000000000000000000000000000000000000000000000000000000000000000000000000000000000000000000000000000020000000001000000000000000000000000000000000000000000000000000000000000000000000000400000000000000000000000400000000000000000000000000000000000000000000000000000000000000000000000000000000000000000000000000000000000000000000000020000000000000000000000000000000000000000000000000000000000001000000000000000000000000000000000000000000000000000000",
      "type": "0x2",
      "transactionHash": "0xfffc5b6c7a215ae4f0e36c287aefe333403a78619836294287d13d27658ebeac",
      "transactionIndex": "0x2",
      "blockHash": "0xa2f14dfc77cd9208bae154fade1da4873f811604eac4b120419cdbc1731eb3b5",
      "blockNumber": "0xea5c8c7",
      "gasUsed": "0xbd23",
      "effectiveGasPrice": "0x131aa00",
      "from": "0x3ebf8ffc3f1517f9760dd2bff36f934d19fa6cd8",
      "to": "0xd17ddca638674459608e506e58c0e916156a83eb",
      "contractAddress": null,
      "gasUsedForL1": "0x3",
      "l1BlockNumber": "0x9dece3",
      "timeboosted": false
    },
    {
      "status": "0x1",
      "cumulativeGasUsed": "0xb490",
      "logs": [
        {
          "address": "0xb1d4538b4571d411f07960ef2838ce337fe1e80e",
          "topics": [
            "0x8c5be1e5ebec7d5bd14f71427d1e84f3dd0314c0f7b2291e5b200ac8c7c3b925",
            "0x0000000000000000000000003ebf8ffc3f1517f9760dd2bff36f934d19fa6cd8",
            "0x000000000000000000000000d17ddca638674459608e506e58c0e916156a83eb"
          ],
          "data": "0x000000000000000000000000000000000000000000000000016345785d8a0000",
          "blockHash": "0x6422d6713a67ca273d08b09f20fc8235700e09dc96c13017c16acec894cfc462",
          "blockNumber": "0xea5c8ca",
          "blockTimestamp": "0x69a1f9f0",
          "transactionHash": "0x9139c6156317af556e0a0c40fe530aaae20305537465aa64fa8c4dabc9a69176",
          "transactionIndex": "0x1",
          "logIndex": "0x0",
          "removed": false
        }
      ],
      "logsBloom": "0x00000001000000000000000000000000000000000000000000000000000000000000000000000000000000000000000000000000000000000000000000200000000000000000000000000000000000000000000000000000000000000000000000000600000000000000000000000000000000000000000000000000000000000000080000000010000000000000000000000000000000000000000000000000020000000000000000000000000000000000000000000000000000000000000000000000000000100000000000000000000000000000000000000000000000000010000000000000000000008000000000000000000000000000000000800001",
      "type": "0x2",
      "transactionHash": "0x9139c6156317af556e0a0c40fe530aaae20305537465aa64fa8c4dabc9a69176",
      "transactionIndex": "0x1",
      "blockHash": "0x6422d6713a67ca273d08b09f20fc8235700e09dc96c13017c16acec894cfc462",
      "blockNumber": "0xea5c8ca",
      "gasUsed": "0xb490",
      "effectiveGasPrice": "0x1318ac0",
      "from": "0x3ebf8ffc3f1517f9760dd2bff36f934d19fa6cd8",
      "to": "0xb1d4538b4571d411f07960ef2838ce337fe1e80e",
      "contractAddress": null,
      "gasUsedForL1": "0x3",
      "l1BlockNumber": "0x9dece3",
      "timeboosted": false
    },
    {
      "status": "0x1",
      "cumulativeGasUsed": "0xb87ec",
      "logs": [
        {
          "address": "0xb1d4538b4571d411f07960ef2838ce337fe1e80e",
          "topics": [
            "0xddf252ad1be2c89b69c2b068fc378daa952ba7f163c4a11628f55a4df523b3ef",
            "0x0000000000000000000000003ebf8ffc3f1517f9760dd2bff36f934d19fa6cd8",
            "0x000000000000000000000000d17ddca638674459608e506e58c0e916156a83eb"
          ],
          "data": "0x000000000000000000000000000000000000000000000000016345785d8a0000",
          "blockHash": "0xd2f7374141eed5aba73c7b742b78e4e948a256531640694998a3dc9f04d1ae9d",
          "blockNumber": "0xea5c8cf",
          "blockTimestamp": "0x69a1f9f1",
          "transactionHash": "0xb5ec256c16adce5229d46c44e10fa5b46b38a666b28949aec0d39c1b42f705d7",
          "transactionIndex": "0x2",
          "logIndex": "0x2",
          "removed": false
        },
        {
          "address": "0xb1d4538b4571d411f07960ef2838ce337fe1e80e",
          "topics": [
            "0x8c5be1e5ebec7d5bd14f71427d1e84f3dd0314c0f7b2291e5b200ac8c7c3b925",
            "0x0000000000000000000000003ebf8ffc3f1517f9760dd2bff36f934d19fa6cd8",
            "0x000000000000000000000000d17ddca638674459608e506e58c0e916156a83eb"
          ],
          "data": "0x0000000000000000000000000000000000000000000000000000000000000000",
          "blockHash": "0xd2f7374141eed5aba73c7b742b78e4e948a256531640694998a3dc9f04d1ae9d",
          "blockNumber": "0xea5c8cf",
          "blockTimestamp": "0x69a1f9f1",
          "transactionHash": "0xb5ec256c16adce5229d46c44e10fa5b46b38a666b28949aec0d39c1b42f705d7",
          "transactionIndex": "0x2",
          "logIndex": "0x3",
          "removed": false
        },
        {
          "address": "0xd17ddca638674459608e506e58c0e916156a83eb",
          "topics": [
            "0x50821bd39ba8e71bcc8c0df3f97ac51a110085c3ec0da1c821117a2147c224b9",
            "0x0000000000000000000000003ebf8ffc3f1517f9760dd2bff36f934d19fa6cd8"
          ],
          "data": "0x000000000000000000000000000000000000000000000000016345785d8a0000",
          "blockHash": "0xd2f7374141eed5aba73c7b742b78e4e948a256531640694998a3dc9f04d1ae9d",
          "blockNumber": "0xea5c8cf",
          "blockTimestamp": "0x69a1f9f1",
          "transactionHash": "0xb5ec256c16adce5229d46c44e10fa5b46b38a666b28949aec0d39c1b42f705d7",
          "transactionIndex": "0x2",
          "logIndex": "0x4",
          "removed": false
        }
      ],
      "logsBloom": "0x00000001000000000000000000000000000000000000000000000000000000000000000000000000000000000000000000000000000000000000000000200000000000000000000000008008000000000000000020000000000000000000000000000600000000000000000000000000000100000000000000000010000400000000080000000010000400000000000000000000000000000000000000000000020000000000000000000000000000000000001000000000000000000000000000000002000000100000000000000000000000000000000000000000000000000010000000000000000000008000000000000000000000000000000000800001",
      "type": "0x2",
      "transactionHash": "0xb5ec256c16adce5229d46c44e10fa5b46b38a666b28949aec0d39c1b42f705d7",
      "transactionIndex": "0x2",
      "blockHash": "0xd2f7374141eed5aba73c7b742b78e4e948a256531640694998a3dc9f04d1ae9d",
      "blockNumber": "0xea5c8cf",
      "gasUsed": "0xe679",
      "effectiveGasPrice": "0x1319a60",
      "from": "0x3ebf8ffc3f1517f9760dd2bff36f934d19fa6cd8",
      "to": "0xd17ddca638674459608e506e58c0e916156a83eb",
      "contractAddress": null,
      "gasUsedForL1": "0x2",
      "l1BlockNumber": "0x9dece3",
      "timeboosted": false
    },
    {
      "status": "0x1",
      "cumulativeGasUsed": "0x218f7",
      "logs": [
        {
          "address": "0xd17ddca638674459608e506e58c0e916156a83eb",
          "topics": [
            "0x3e8e850f6b70ae0ddd4bcc9e736111c00225be60aab9085691176cb31faaf433",
            "0x000000000000000000000000000000000000000000000000304611b6affba76a"
          ],
          "data": "0x000000000000000000000000000000000000000000000000011c37937e0800000000000000000000000000000000000000000000000000000000000069a1f9f2",
          "blockHash": "0x7ef91d06aa4f97e231320fc958f63dd6eded8577c39eb49568f62980ee2d2d6e",
          "blockNumber": "0xea5c8d1",
          "blockTimestamp": "0x69a1f9f2",
          "transactionHash": "0xe9fc1241a67017e8a500c0e7b203224636e547295f9dd052e4892fd7b74d3c56",
          "transactionIndex": "0x1",
          "logIndex": "0x0",
          "removed": false
        }
      ],
      "logsBloom": "0x00000000000000000000000000000000000000000000000000000000000000000000000000000000000000000000000000000000080000000000000000000000000000000000000000000000000000000000000020010000000000000000000000000000008000000000000000000000000000000000000000000000000400000000000000000000000400000000000000000000000000000000000000000000000000000000000000000000000000000000000000000000000000000000000000004000000000000000000000000000000000000000000000000000080000000000000000000000000000000000000000000000000000000000000000200000",
      "type": "0x2",
      "transactionHash": "0xe9fc1241a67017e8a500c0e7b203224636e547295f9dd052e4892fd7b74d3c56",
      "transactionIndex": "0x1",
      "blockHash": "0x7ef91d06aa4f97e231320fc958f63dd6eded8577c39eb49568f62980ee2d2d6e",
      "blockNumber": "0xea5c8d1",
      "gasUsed": "0x218f7",
      "effectiveGasPrice": "0x131e0b0",
      "from": "0x3ebf8ffc3f1517f9760dd2bff36f934d19fa6cd8",
      "to": "0xd17ddca638674459608e506e58c0e916156a83eb",
      "contractAddress": null,
      "gasUsedForL1": "0x3",
      "l1BlockNumber": "0x9dece3",
      "timeboosted": false
    },
    {
      "status": "0x1",
      "cumulativeGasUsed": "0x195aa",
      "logs": [
        {
          "address": "0xd17ddca638674459608e506e58c0e916156a83eb",
          "topics": [
            "0x3e8e850f6b70ae0ddd4bcc9e736111c00225be60aab9085691176cb31faaf433",
            "0x0000000000000000000000000000000000000000000000008f90b8876dee6538"
          ],
          "data": "0x000000000000000000000000000000000000000000000000006a94d74f4300000000000000000000000000000000000000000000000000000000000069a1f9f3",
          "blockHash": "0x81a94a6e2cde517992e21328205dd4d0da9cbd5b4bc88dd07c0317174d315e5a",
          "blockNumber": "0xea5c8d5",
          "blockTimestamp": "0x69a1f9f3",
          "transactionHash": "0xeab08f3decda47bf90880b6fe21e460c74f6ee1b8c4d6391c96d4ae915a458fb",
          "transactionIndex": "0x1",
          "logIndex": "0x0",
          "removed": false
        }
      ],
      "logsBloom": "0x00000000000000000000000000000000000000000000000000000000000000000000000000000000000000000000000000000000000000000000000000000000000000000000000000000000000000000000000420010000000000000000200000000000008000000000000000000000000000000000000000000000000400004000000000000000000400000000000000000000000000000000000000000000000000000000000000000000000000000000000000000000000000000000000000004000000000000000000000000000000000000000000000000000000000000000000000000000000000000000000000000000000000000000000000000000",
      "type": "0x2",
      "transactionHash": "0xeab08f3decda47bf90880b6fe21e460c74f6ee1b8c4d6391c96d4ae915a458fb",
      "transactionIndex": "0x1",
      "blockHash": "0x81a94a6e2cde517992e21328205dd4d0da9cbd5b4bc88dd07c0317174d315e5a",
      "blockNumber": "0xea5c8d5",
      "gasUsed": "0x195aa",
      "effectiveGasPrice": "0x13163b0",
      "from": "0x3ebf8ffc3f1517f9760dd2bff36f934d19fa6cd8",
      "to": "0xd17ddca638674459608e506e58c0e916156a83eb",
      "contractAddress": null,
      "gasUsedForL1": "0x3",
      "l1BlockNumber": "0x9dece4",
      "timeboosted": false
    }
  ],
  "libraries": [],
  "pending": [],
  "returns": {},
  "timestamp": 1772222963846,
  "chain": 421614,
  "commit": "8d83af6"
}