{
  "transactions": [
    {
      "hash": "0x024740f9434d74326c7b81621e5731598fa2259df34745bc3d42149bc3314c1a",
      "transactionType": "CALL",
      "contractName": "VaultManager",
      "contractAddress": "0xe195954e128d7c65ba0632128b4f2d84efe6a8d7",
      "function": "setTrustedVault(uint64,address)",
      "arguments": [
        "10344971235874465080",
        "0x37c78AfB59a2D66811565Ca2431BFa395eD7666b"
      ],
      "transaction": {
        "from": "0x3ebf8ffc3f1517f9760dd2bff36f934d19fa6cd8",
        "to": "0xe195954e128d7c65ba0632128b4f2d84efe6a8d7",
        "gas": "0xf7d3",
        "value": "0x0",
        "input": "0x09bce7400000000000000000000000000000000000000000000000008f90b8876dee653800000000000000000000000037c78afb59a2d66811565ca2431bfa395ed7666b",
        "nonce": "0x38",
        "chainId": "0x66eee"
      },
      "additionalContracts": [],
      "isFixedGasLimit": false
    },
    {
      "hash": "0xef57b43fd49ef6ebdfbc12ed7a8fac2995e0c7e89e3bcb4a80743c924d93c4de",
      "transactionType": "CALL",
      "contractName": null,
      "contractAddress": "0xb1d4538b4571d411f07960ef2838ce337fe1e80e",
      "function": "approve(address,uint256)",
      "arguments": [
        "0xe195954e128D7c65ba0632128B4F2d84EfE6A8D7",
        "2000000000000000000"
      ],
      "transaction": {
        "from": "0x3ebf8ffc3f1517f9760dd2bff36f934d19fa6cd8",
        "to": "0xb1d4538b4571d411f07960ef2838ce337fe1e80e",
        "gas": "0xeca7",
        "value": "0x0",
        "input": "0x095ea7b3000000000000000000000000e195954e128d7c65ba0632128b4f2d84efe6a8d70000000000000000000000000000000000000000000000001bc16d674ec80000",
        "nonce": "0x39",
        "chainId": "0x66eee"
      },
      "additionalContracts": [],
      "isFixedGasLimit": false
    },
    {
      "hash": "0xec7f4ca924f2e6072bb97cb7b704a0b7d0794337253bdb9d3a97cf49035d10e8",
      "transactionType": "CALL",
      "contractName": "VaultManager",
      "contractAddress": "0xe195954e128d7c65ba0632128b4f2d84efe6a8d7",
      "function": "fundLink(uint256)",
      "arguments": [
        "2000000000000000000"
      ],
      "transaction": {
        "from": "0x3ebf8ffc3f1517f9760dd2bff36f934d19fa6cd8",
        "to": "0xe195954e128d7c65ba0632128b4f2d84efe6a8d7",
        "gas": "0x13e53",
        "value": "0x0",
        "input": "0xbb38a1aa0000000000000000000000000000000000000000000000001bc16d674ec80000",
        "nonce": "0x3a",
        "chainId": "0x66eee"
      },
      "additionalContracts": [],
      "isFixedGasLimit": false
    },
    {
      "hash": "0xb700189e95c6dd14024191cb0c8f94aeb8885d9ef86530395ccffa07fba1a408",
      "transactionType": "CALL",
      "contractName": "VaultManager",
      "contractAddress": "0xe195954e128d7c65ba0632128b4f2d84efe6a8d7",
      "function": "updateYieldData(uint64,uint256)",
      "arguments": [
        "3478487238524512106",
        "80000000000000000"
      ],
      "transaction": {
        "from": "0x3ebf8ffc3f1517f9760dd2bff36f934d19fa6cd8",
        "to": "0xe195954e128d7c65ba0632128b4f2d84efe6a8d7",
        "gas": "0x2bfc4",
        "value": "0x0",
        "input": "0x6e4801b2000000000000000000000000000000000000000000000000304611b6affba76a000000000000000000000000000000000000000000000000011c37937e080000",
        "nonce": "0x3b",
        "chainId": "0x66eee"
      },
      "additionalContracts": [],
      "isFixedGasLimit": false
    },
    {
      "hash": "0x4b4fedaf5a872e354c6bcefa687e71bf6e76bc1994b8b5c6efa32dac4d0e3efb",
      "transactionType": "CALL",
      "contractName": "VaultManager",
      "contractAddress": "0xe195954e128d7c65ba0632128b4f2d84efe6a8d7",
      "function": "updateYieldData(uint64,uint256)",
      "arguments": [
        "10344971235874465080",
        "30000000000000000"
      ],
      "transaction": {
        "from": "0x3ebf8ffc3f1517f9760dd2bff36f934d19fa6cd8",
        "to": "0xe195954e128d7c65ba0632128b4f2d84efe6a8d7",
        "gas": "0x2bfb4",
        "value": "0x0",
        "input": "0x6e4801b20000000000000000000000000000000000000000000000008f90b8876dee6538000000000000000000000000000000000000000000000000006a94d74f430000",
        "nonce": "0x3c",
        "chainId": "0x66eee"
      },
      "additionalContracts": [],
      "isFixedGasLimit": false
    }
  ],
  "receipts": [
    {
      "status": "0x1",
      "cumulativeGasUsed": "0xbd20",
      "logs": [
        {
          "address": "0xe195954e128d7c65ba0632128b4f2d84efe6a8d7",
          "topics": [
            "0xaca1648a739678727377aa83875460bb23dddb92a88315c7b8d9879162e72ef5"
          ],
          "data": "0x0000000000000000000000000000000000000000000000008f90b8876dee653800000000000000000000000037c78afb59a2d66811565ca2431bfa395ed7666b",
          "blockHash": "0x3c661ae41f3a3b009cc15e737745339d4f4473e685d3916edbc4cc9e7458d75f",
          "blockNumber": "0xea2763a",
          "blockTimestamp": "0x69a0b9d8",
          "transactionHash": "0x024740f9434d74326c7b81621e5731598fa2259df34745bc3d42149bc3314c1a",
          "transactionIndex": "0x1",
          "logIndex": "0x0",
          "removed": false
        }
      ],
      "logsBloom": "0x00000000000000000000000000000000000000000000000000000000000000000000000000000000000000000000000000000000000000000000000000000000000000000000000000000000000000000000000800000000001000000000000000000000000000000000000000000000000000000000000000000000000000000000000000000000000000000000000000000000000000000000000000000000000000000000000000000000000000000000000000000000000000000000000000000000000020000000000000000000000000100000000000000000000000000000000001200000000000000000000000000000000000000000000000000000",
      "type": "0x2",
      "transactionHash": "0x024740f9434d74326c7b81621e5731598fa2259df34745bc3d42149bc3314c1a",
      "transactionIndex": "0x1",
      "blockHash": "0x3c661ae41f3a3b009cc15e737745339d4f4473e685d3916edbc4cc9e7458d75f",
      "blockNumber": "0xea2763a",
      "gasUsed": "0xbd20",
      "effectiveGasPrice": "0x1312d00",
      "from": "0x3ebf8ffc3f1517f9760dd2bff36f934d19fa6cd8",
      "to": "0xe195954e128d7c65ba0632128b4f2d84efe6a8d7",
      "contractAddress": null,
      "gasUsedForL1": "0x0",
      "l1BlockNumber": "0x9dd30b",
      "timeboosted": false
    },
    {
      "status": "0x1",
      "cumulativeGasUsed": "0x283f8",
      "logs": [
        {
          "address": "0xb1d4538b4571d411f07960ef2838ce337fe1e80e",
          "topics": [
            "0x8c5be1e5ebec7d5bd14f71427d1e84f3dd0314c0f7b2291e5b200ac8c7c3b925",
            "0x0000000000000000000000003ebf8ffc3f1517f9760dd2bff36f934d19fa6cd8",
            "0x000000000000000000000000e195954e128d7c65ba0632128b4f2d84efe6a8d7"
          ],
          "data": "0x0000000000000000000000000000000000000000000000001bc16d674ec80000",
          "blockHash": "0x33ce25ace568834f88f4b82d49f10289d8c5e2cf995386d8d60c143250b601d9",
          "blockNumber": "0xea2763f",
          "blockTimestamp": "0x69a0b9d9",
          "transactionHash": "0xef57b43fd49ef6ebdfbc12ed7a8fac2995e0c7e89e3bcb4a80743c924d93c4de",
          "transactionIndex": "0x3",
          "logIndex": "0x4",
          "removed": false
        }
      ],
      "logsBloom": "0x00000000000000000000000000000000000000000000000000000000000000000000000000000000000000000000000004000000000000000000000000200000000000000000000000000000000000000000000000000000000000000000000000000600000000000000000000000000000000000000000000000000000000000000080000000010000000000000000000000000000000000000000000000000020000000000000000000000000000008000000000000000000000000000000000000000000000000000000000001000000000000000000000000000000000000010000000000000000000008000000000000000000000000000000000000001",
      "type": "0x2",
      "transactionHash": "0xef57b43fd49ef6ebdfbc12ed7a8fac2995e0c7e89e3bcb4a80743c924d93c4de",
      "transactionIndex": "0x3",
      "blockHash": "0x33ce25ace568834f88f4b82d49f10289d8c5e2cf995386d8d60c143250b601d9",
      "blockNumber": "0xea2763f",
      "gasUsed": "0xb48d",
      "effectiveGasPrice": "0x1313ca0",
      "from": "0x3ebf8ffc3f1517f9760dd2bff36f934d19fa6cd8",
      "to": "0xb1d4538b4571d411f07960ef2838ce337fe1e80e",
      "contractAddress": null,
      "gasUsedForL1": "0x0",
      "l1BlockNumber": "0x9dd30b",
      "timeboosted": false
    },
    {
      "status": "0x1",
      "cumulativeGasUsed": "0x280e4",
      "logs": [
        {
          "address": "0xb1d4538b4571d411f07960ef2838ce337fe1e80e",
          "topics": [
            "0xddf252ad1be2c89b69c2b068fc378daa952ba7f163c4a11628f55a4df523b3ef",
            "0x0000000000000000000000003ebf8ffc3f1517f9760dd2bff36f934d19fa6cd8",
            "0x000000000000000000000000e195954e128d7c65ba0632128b4f2d84efe6a8d7"
          ],
          "data": "0x0000000000000000000000000000000000000000000000001bc16d674ec80000",
          "blockHash": "0xa8456bd13b778d0c3723e716d897fa93ee5f45bf7f0c31570bc7147dddc96c2b",
          "blockNumber": "0xea27644",
          "blockTimestamp": "0x69a0b9db",
          "transactionHash": "0xec7f4ca924f2e6072bb97cb7b704a0b7d0794337253bdb9d3a97cf49035d10e8",
          "transactionIndex": "0x2",
          "logIndex": "0x3",
          "removed": false
        },
        {
          "address": "0xb1d4538b4571d411f07960ef2838ce337fe1e80e",
          "topics": [
            "0x8c5be1e5ebec7d5bd14f71427d1e84f3dd0314c0f7b2291e5b200ac8c7c3b925",
            "0x0000000000000000000000003ebf8ffc3f1517f9760dd2bff36f934d19fa6cd8",
            "0x000000000000000000000000e195954e128d7c65ba0632128b4f2d84efe6a8d7"
          ],
          "data": "0x0000000000000000000000000000000000000000000000000000000000000000",
          "blockHash": "0xa8456bd13b778d0c3723e716d897fa93ee5f45bf7f0c31570bc7147dddc96c2b",
          "blockNumber": "0xea27644",
          "blockTimestamp": "0x69a0b9db",
          "transactionHash": "0xec7f4ca924f2e6072bb97cb7b704a0b7d0794337253bdb9d3a97cf49035d10e8",
          "transactionIndex": "0x2",
          "logIndex": "0x4",
          "removed": false
        },
        {
          "address": "0xe195954e128d7c65ba0632128b4f2d84efe6a8d7",
          "topics": [
            "0x50821bd39ba8e71bcc8c0df3f97ac51a110085c3ec0da1c821117a2147c224b9",
            "0x0000000000000000000000003ebf8ffc3f1517f9760dd2bff36f934d19fa6cd8"
          ],
          "data": "0x0000000000000000000000000000000000000000000000001bc16d674ec80000",
          "blockHash": "0xa8456bd13b778d0c3723e716d897fa93ee5f45bf7f0c31570bc7147dddc96c2b",
          "blockNumber": "0xea27644",
          "blockTimestamp": "0x69a0b9db",
          "transactionHash": "0xec7f4ca924f2e6072bb97cb7b704a0b7d0794337253bdb9d3a97cf49035d10e8",
          "transactionIndex": "0x2",
          "logIndex": "0x5",
          "removed": false
        }
      ],
      "logsBloom": "0x00000000000000000000000000000000000000000000000000000000000000000000000000000000000000000000000004000000000000000000000000200000000000000000000000008008000000000000000800000000000000000000000000000600000000000000000000000000000100000000000000000010000000000000080000000010000000000000000000000000000000000000000000000000020000000000000000000000000000008000001000000000000000000000000000000002000000000000000000001000000000100000000000000000000000000010000000200000000000008000000000000000000000000000000000000001",
      "type": "0x2",
      "transactionHash": "0xec7f4ca924f2e6072bb97cb7b704a0b7d0794337253bdb9d3a97cf49035d10e8",
      "transactionIndex": "0x2",
      "blockHash": "0xa8456bd13b778d0c3723e716d897fa93ee5f45bf7f0c31570bc7147dddc96c2b",
      "blockNumber": "0xea27644",
      "gasUsed": "0xe677",
      "effectiveGasPrice": "0x1312d00",
      "from": "0x3ebf8ffc3f1517f9760dd2bff36f934d19fa6cd8",
      "to": "0xe195954e128d7c65ba0632128b4f2d84efe6a8d7",
      "contractAddress": null,
      "gasUsedForL1": "0x0",
      "l1BlockNumber": "0x9dd30c",
      "timeboosted": false
    },
    {
      "status": "0x1",
      "cumulativeGasUsed": "0x218f4",
      "logs": [
        {
          "address": "0xe195954e128d7c65ba0632128b4f2d84efe6a8d7",
          "topics": [
            "0x3e8e850f6b70ae0ddd4bcc9e736111c00225be60aab9085691176cb31faaf433",
            "0x000000000000000000000000000000000000000000000000304611b6affba76a"
          ],
          "data": "0x000000000000000000000000000000000000000000000000011c37937e0800000000000000000000000000000000000000000000000000000000000069a0b9dc",
          "blockHash": "0x971cfd97809bb0941fa1c18cf8903c22d220426132c592c123b11cd901ebb3e9",
          "blockNumber": "0xea27647",
          "blockTimestamp": "0x69a0b9dc",
          "transactionHash": "0xb700189e95c6dd14024191cb0c8f94aeb8885d9ef86530395ccffa07fba1a408",
          "transactionIndex": "0x1",
          "logIndex": "0x0",
          "removed": false
        }
      ],
      "logsBloom": "0x00000000000000000000000000000000000000000000000000000000000000000000000000000000000000000000000000000000080000000000000000000000000000000000000000000000000000000000000800010000000000000000000000000000008000000000000000000000000000000000000000000000000000000000000000000000000000000000000000000000000000000000000000000000000000000000000000000000000000000000000000000000000000000000000000004000000000000000000000000000000000100000000000000000080000000000000000200000000000000000000000000000000000000000000000200000",
      "type": "0x2",
      "transactionHash": "0xb700189e95c6dd14024191cb0c8f94aeb8885d9ef86530395ccffa07fba1a408",
      "transactionIndex": "0x1",
      "blockHash": "0x971cfd97809bb0941fa1c18cf8903c22d220426132c592c123b11cd901ebb3e9",
      "blockNumber": "0xea27647",
      "gasUsed": "0x218f4",
      "effectiveGasPrice": "0x1312d00",
      "from": "0x3ebf8ffc3f1517f9760dd2bff36f934d19fa6cd8",
      "to": "0xe195954e128d7c65ba0632128b4f2d84efe6a8d7",
      "contractAddress": null,
      "gasUsedForL1": "0x0",
      "l1BlockNumber": "0x9dd30c",
      "timeboosted": false
    },
    {
      "status": "0x1",
      "cumulativeGasUsed": "0x195a7",
      "logs": [
        {
          "address": "0xe195954e128d7c65ba0632128b4f2d84efe6a8d7",
          "topics": [
            "0x3e8e850f6b70ae0ddd4bcc9e736111c00225be60aab9085691176cb31faaf433",
            "0x0000000000000000000000000000000000000000000000008f90b8876dee6538"
          ],
          "data": "0x000000000000000000000000000000000000000000000000006a94d74f4300000000000000000000000000000000000000000000000000000000000069a0b9dd",
          "blockHash": "0x6e09a411e7bf90fc5aa44f434b5e0a6b53d19c0ca381755a32d6cc7d6f2fa355",
          "blockNumber": "0xea27649",
          "blockTimestamp": "0x69a0b9dd",
          "transactionHash": "0x4b4fedaf5a872e354c6bcefa687e71bf6e76bc1994b8b5c6efa32dac4d0e3efb",
          "transactionIndex": "0x1",
          "logIndex": "0x0",
          "removed": false
        }
      ],
      "logsBloom": "0x00000000000000000000000000000000000000000000000000000000000000000000000000000000000000000000000000000000000000000000000000000000000000000000000000000000000000000000000c00010000000000000000200000000000008000000000000000000000000000000000000000000000000000004000000000000000000000000000000000000000000000000000000000000000000000000000000000000000000000000000000000000000000000000000000000004000000000000000000000000000000000100000000000000000000000000000000000200000000000000000000000000000000000000000000000000000",
      "type": "0x2",
      "transactionHash": "0x4b4fedaf5a872e354c6bcefa687e71bf6e76bc1994b8b5c6efa32dac4d0e3efb",
      "transactionIndex": "0x1",
      "blockHash": "0x6e09a411e7bf90fc5aa44f434b5e0a6b53d19c0ca381755a32d6cc7d6f2fa355",
      "blockNumber": "0xea27649",
      "gasUsed": "0x195a7",
      "effectiveGasPrice": "0x13207c0",
      "from": "0x3ebf8ffc3f1517f9760dd2bff36f934d19fa6cd8",
      "to": "0xe195954e128d7c65ba0632128b4f2d84efe6a8d7",
      "contractAddress": null,
      "gasUsedForL1": "0x0",
      "l1BlockNumber": "0x9dd30c",
      "timeboosted": false
    }
  ],
  "libraries": [],
  "pending": [],
  "returns": {},
  "timestamp": 1772141022304,
  "chain": 421614,
  "commit": "3d65528"
}