{
  "transactions": [
    {
      "hash": "0x28f35602a73a62a868603feada2454b746445d7db5246b61ffcbc936b65100a6",
      "transactionType": "CALL",
      "contractName": null,
      "contractAddress": "0xa1de025b706687b9a4ec40a3958aa5dc60bf1b66",
      "function": "setTrustedVault(uint64,address)",
      "arguments": [
        "10344971235874465080",
        "0x5aAe96534Aa5f481A1B92eC8dD48f7A5423b13C4"
      ],
      "transaction": {
        "from": "0x3ebf8ffc3f1517f9760dd2bff36f934d19fa6cd8",
        "to": "0xa1de025b706687b9a4ec40a3958aa5dc60bf1b66",
        "gas": "0xf7d3",
        "value": "0x0",
        "input": "0x09bce7400000000000000000000000000000000000000000000000008f90b8876dee65380000000000000000000000005aae96534aa5f481a1b92ec8dd48f7a5423b13c4",
        "nonce": "0xc4",
        "chainId": "0x66eee"
      },
      "additionalContracts": [],
      "isFixedGasLimit": false
    },
    {
      "hash": "0x2619cae9562fb6a26069f3fce003a3c8447f11ba9300e8f87da4069941cca2cb",
      "transactionType": "CALL",
      "contractName": null,
      "contractAddress": "0xb1d4538b4571d411f07960ef2838ce337fe1e80e",
      "function": "approve(address,uint256)",
      "arguments": [
        "0xA1DE025b706687b9A4ec40A3958aa5dC60BF1B66",
        "100000000000000000"
      ],
      "transaction": {
        "from": "0x3ebf8ffc3f1517f9760dd2bff36f934d19fa6cd8",
        "to": "0xb1d4538b4571d411f07960ef2838ce337fe1e80e",
        "gas": "0xeca7",
        "value": "0x0",
        "input": "0x095ea7b3000000000000000000000000a1de025b706687b9a4ec40a3958aa5dc60bf1b66000000000000000000000000000000000000000000000000016345785d8a0000",
        "nonce": "0xc5",
        "chainId": "0x66eee"
      },
      "additionalContracts": [],
      "isFixedGasLimit": false
    },
    {
      "hash": "0x7216a66e83909eb48566cd5c600e449aff3ccb03d2e4c293e85e1b7c09e9ffd4",
      "transactionType": "CALL",
      "contractName": null,
      "contractAddress": "0xa1de025b706687b9a4ec40a3958aa5dc60bf1b66",
      "function": "fundLink(uint256)",
      "arguments": [
        "100000000000000000"
      ],
      "transaction": {
        "from": "0x3ebf8ffc3f1517f9760dd2bff36f934d19fa6cd8",
        "to": "0xa1de025b706687b9a4ec40a3958aa5dc60bf1b66",
        "gas": "0x13e53",
        "value": "0x0",
        "input": "0xbb38a1aa000000000000000000000000000000000000000000000000016345785d8a0000",
        "nonce": "0xc6",
        "chainId": "0x66eee"
      },
      "additionalContracts": [],
      "isFixedGasLimit": false
    },
    {
      "hash": "0x494d3e8950322bfde559b77d5052267d98662aae85edab757562951355505d9f",
      "transactionType": "CALL",
      "contractName": null,
      "contractAddress": "0xa1de025b706687b9a4ec40a3958aa5dc60bf1b66",
      "function": "updateYieldData(uint64,uint256)",
      "arguments": [
        "3478487238524512106",
        "80000000000000000"
      ],
      "transaction": {
        "from": "0x3ebf8ffc3f1517f9760dd2bff36f934d19fa6cd8",
        "to": "0xa1de025b706687b9a4ec40a3958aa5dc60bf1b66",
        "gas": "0x2bfc4",
        "value": "0x0",
        "input": "0x6e4801b2000000000000000000000000000000000000000000000000304611b6affba76a000000000000000000000000000000000000000000000000011c37937e080000",
        "nonce": "0xc7",
        "chainId": "0x66eee"
      },
      "additionalContracts": [],
      "isFixedGasLimit": false
    },
    {
      "hash": "0x76a7bc14d0e39efce944e5e0d7dd9a2c55a882593c06e2b1d3c2c81c59bbce81",
      "transactionType": "CALL",
      "contractName": null,
      "contractAddress": "0xa1de025b706687b9a4ec40a3958aa5dc60bf1b66",
      "function": "updateYieldData(uint64,uint256)",
      "arguments": [
        "10344971235874465080",
        "30000000000000000"
      ],
      "transaction": {
        "from": "0x3ebf8ffc3f1517f9760dd2bff36f934d19fa6cd8",
        "to": "0xa1de025b706687b9a4ec40a3958aa5dc60bf1b66",
        "gas": "0x2bfb4",
        "value": "0x0",
        "input": "0x6e4801b20000000000000000000000000000000000000000000000008f90b8876dee6538000000000000000000000000000000000000000000000000006a94d74f430000",
        "nonce": "0xc8",
        "chainId": "0x66eee"
      },
      "additionalContracts": [],
      "isFixedGasLimit": false
    }
  ],
  "receipts": [
    {
      "status": "0x1",
      "cumulativeGasUsed": "0xbd20",
      "logs": [
        {
          "address": "0xa1de025b706687b9a4ec40a3958aa5dc60bf1b66",
          "topics": [
            "0xaca1648a739678727377aa83875460bb23dddb92a88315c7b8d9879162e72ef5"
          ],
          "data": "0x0000000000000000000000000000000000000000000000008f90b8876dee65380000000000000000000000005aae96534aa5f481a1b92ec8dd48f7a5423b13c4",
          "blockHash": "0x454b8988af984d5df2ed1704c899bf460d5a74072c8dcd38bc49e85bb92b707f",
          "blockNumber": "0xea886b8",
          "blockTimestamp": "0x69a2f671",
          "transactionHash": "0x28f35602a73a62a868603feada2454b746445d7db5246b61ffcbc936b65100a6",
          "transactionIndex": "0x1",
          "logIndex": "0x0",
          "removed": false
        }
      ],
      "logsBloom": "0x00000000000000000000000000000000000000000001000000000000000000000000000000000000000000000000000000000000000000000000000000000000000000000000000000000040000000000000000000000000001000000000000000000000000000000000000000000000000000000000000000000000000000000000000000000000000000000000000000000000000000000000000000000000000000000000000000000000000000000000000000000000000000000000000000000000000020000000000000000000000000000000000000000000000000000000000001000000000000000000000000000000000000000000040000000000",
      "type": "0x2",
      "transactionHash": "0x28f35602a73a62a868603feada2454b746445d7db5246b61ffcbc936b65100a6",
      "transactionIndex": "0x1",
      "blockHash": "0x454b8988af984d5df2ed1704c899bf460d5a74072c8dcd38bc49e85bb92b707f",
      "blockNumber": "0xea886b8",
      "gasUsed": "0xbd20",
      "effectiveGasPrice": "0x1312d00",
      "from": "0x3ebf8ffc3f1517f9760dd2bff36f934d19fa6cd8",
      "to": "0xa1de025b706687b9a4ec40a3958aa5dc60bf1b66",
      "contractAddress": null,
      "gasUsedForL1": "0x0",
      "l1BlockNumber": "0x9e0153",
      "timeboosted": false
    },
    {
      "status": "0x1",
      "cumulativeGasUsed": "0xb48d",
      "logs": [
        {
          "address": "0xb1d4538b4571d411f07960ef2838ce337fe1e80e",
          "topics": [
            "0x8c5be1e5ebec7d5bd14f71427d1e84f3dd0314c0f7b2291e5b200ac8c7c3b925",
            "0x0000000000000000000000003ebf8ffc3f1517f9760dd2bff36f934d19fa6cd8",
            "0x000000000000000000000000a1de025b706687b9a4ec40a3958aa5dc60bf1b66"
          ],
          "data": "0x000000000000000000000000000000000000000000000000016345785d8a0000",
          "blockHash": "0x0415a5ed54be42ffb29df9c72393a0d55469c4566a2b4b65ecd27c4eca6121a4",
          "blockNumber": "0xea886ba",
          "blockTimestamp": "0x69a2f672",
          "transactionHash": "0x2619cae9562fb6a26069f3fce003a3c8447f11ba9300e8f87da4069941cca2cb",
          "transactionIndex": "0x1",
          "logIndex": "0x0",
          "removed": false
        }
      ],
      "logsBloom": "0x00000000000000000000000000000000000000000000000000000000000000000000000000000000000000000000000000000000000000000000000000200000000000000000000000000000000000800000000000000000002000000000000000000600000000000000000000000000000000000000000000000000800000000000080000000010000000000000000000000000000000000000000000000000020000000000000000000000000000000000000000000000000000000000000000000000000000000000000000000000000000000000000000000000000000000010000000000000000000008000000000000000000000000000000000000001",
      "type": "0x2",
      "transactionHash": "0x2619cae9562fb6a26069f3fce003a3c8447f11ba9300e8f87da4069941cca2cb",
      "transactionIndex": "0x1",
      "blockHash": "0x0415a5ed54be42ffb29df9c72393a0d55469c4566a2b4b65ecd27c4eca6121a4",
      "blockNumber": "0xea886ba",
      "gasUsed": "0xb48d",
      "effectiveGasPrice": "0x1312d00",
      "from": "0x3ebf8ffc3f1517f9760dd2bff36f934d19fa6cd8",
      "to": "0xb1d4538b4571d411f07960ef2838ce337fe1e80e",
      "contractAddress": null,
      "gasUsedForL1": "0x0",
      "l1BlockNumber": "0x9e0153",
      "timeboosted": false
    },
    {
      "status": "0x1",
      "cumulativeGasUsed": "0xe677",
      "logs": [
        {
          "address": "0xb1d4538b4571d411f07960ef2838ce337fe1e80e",
          "topics": [
            "0xddf252ad1be2c89b69c2b068fc378daa952ba7f163c4a11628f55a4df523b3ef",
            "0x0000000000000000000000003ebf8ffc3f1517f9760dd2bff36f934d19fa6cd8",
            "0x000000000000000000000000a1de025b706687b9a4ec40a3958aa5dc60bf1b66"
          ],
          "data": "0x000000000000000000000000000000000000000000000000016345785d8a0000",
          "blockHash": "0xf596108db153b26b85f4485cdd265c9e4e5d0c7308b224422254427d56dfc072",
          "blockNumber": "0xea886bc",
          "blockTimestamp": "0x69a2f673",
          "transactionHash": "0x7216a66e83909eb48566cd5c600e449aff3ccb03d2e4c293e85e1b7c09e9ffd4",
          "transactionIndex": "0x1",
          "logIndex": "0x0",
          "removed": false
        },
        {
          "address": "0xb1d4538b4571d411f07960ef2838ce337fe1e80e",
          "topics": [
            "0x8c5be1e5ebec7d5bd14f71427d1e84f3dd0314c0f7b2291e5b200ac8c7c3b925",
            "0x0000000000000000000000003ebf8ffc3f1517f9760dd2bff36f934d19fa6cd8",
            "0x000000000000000000000000a1de025b706687b9a4ec40a3958aa5dc60bf1b66"
          ],
          "data": "0x0000000000000000000000000000000000000000000000000000000000000000",
          "blockHash": "0xf596108db153b26b85f4485cdd265c9e4e5d0c7308b224422254427d56dfc072",
          "blockNumber": "0xea886bc",
          "blockTimestamp": "0x69a2f673",
          "transactionHash": "0x7216a66e83909eb48566cd5c600e449aff3ccb03d2e4c293e85e1b7c09e9ffd4",
          "transactionIndex": "0x1",
          "logIndex": "0x1",
          "removed": false
        },
        {
          "address": "0xa1de025b706687b9a4ec40a3958aa5dc60bf1b66",
          "topics": [
            "0x50821bd39ba8e71bcc8c0df3f97ac51a110085c3ec0da1c821117a2147c224b9",
            "0x0000000000000000000000003ebf8ffc3f1517f9760dd2bff36f934d19fa6cd8"
          ],
          "data": "0x000000000000000000000000000000000000000000000000016345785d8a0000",
          "blockHash": "0xf596108db153b26b85f4485cdd265c9e4e5d0c7308b224422254427d56dfc072",
          "blockNumber": "0xea886bc",
          "blockTimestamp": "0x69a2f673",
          "transactionHash": "0x7216a66e83909eb48566cd5c600e449aff3ccb03d2e4c293e85e1b7c09e9ffd4",
          "transactionIndex": "0x1",
          "logIndex": "0x2",
          "removed": false
        }
      ],
      "logsBloom": "0x00000000000000000000000000000000000000000001000000000000000000000000000000000000000000000000000000000000000000000000000000200000000000000000000000008048000000800000000000000000002000000000000000000600000000000000000000000000000100000000000000000010800000000000080000000010000000000000000000000000000000000000000000000000020000000000000000000000000000000000001000000000000000000000000000000002000000000000000000000000000000000000000000000000000000000010000000000000000000008000000000000000000000000000040000000001",
      "type": "0x2",
      "transactionHash": "0x7216a66e83909eb48566cd5c600e449aff3ccb03d2e4c293e85e1b7c09e9ffd4",
      "transactionIndex": "0x1",
      "blockHash": "0xf596108db153b26b85f4485cdd265c9e4e5d0c7308b224422254427d56dfc072",
      "blockNumber": "0xea886bc",
      "gasUsed": "0xe677",
      "effectiveGasPrice": "0x1312d00",
      "from": "0x3ebf8ffc3f1517f9760dd2bff36f934d19fa6cd8",
      "to": "0xa1de025b706687b9a4ec40a3958aa5dc60bf1b66",
      "contractAddress": null,
      "gasUsedForL1": "0x0",
      "l1BlockNumber": "0x9e0153",
      "timeboosted": false
    },
    {
      "status": "0x1",
      "cumulativeGasUsed": "0x218f4",
      "logs": [
        {
          "address": "0xa1de025b706687b9a4ec40a3958aa5dc60bf1b66",
          "topics": [
            "0x3e8e850f6b70ae0ddd4bcc9e736111c00225be60aab9085691176cb31faaf433",
            "0x000000000000000000000000000000000000000000000000304611b6affba76a"
          ],
          "data": "0x000000000000000000000000000000000000000000000000011c37937e0800000000000000000000000000000000000000000000000000000000000069a2f674",
          "blockHash": "0xb4d2b7d8f2b5287b99385e8eb465932e07e2d3994000502310413b8f8ea1c547",
          "blockNumber": "0xea886bf",
          "blockTimestamp": "0x69a2f674",
          "transactionHash": "0x494d3e8950322bfde559b77d5052267d98662aae85edab757562951355505d9f",
          "transactionIndex": "0x1",
          "logIndex": "0x0",
          "removed": false
        }
      ],
      "logsBloom": "0x00000000000000000000000000000000000000000001000000000000000000000000000000000000000000000000000000000000080000000000000000000000000000000000000000000040000000000000000000010000000000000000000000000000008000000000000000000000000000000000000000000000000000000000000000000000000000000000000000000000000000000000000000000000000000000000000000000000000000000000000000000000000000000000000000004000000000000000000000000000000000000000000000000000080000000000000000000000000000000000000000000000000000000000040000200000",
      "type": "0x2",
      "transactionHash": "0x494d3e8950322bfde559b77d5052267d98662aae85edab757562951355505d9f",
      "transactionIndex": "0x1",
      "blockHash": "0xb4d2b7d8f2b5287b99385e8eb465932e07e2d3994000502310413b8f8ea1c547",
      "blockNumber": "0xea886bf",
      "gasUsed": "0x218f4",
      "effectiveGasPrice": "0x1315be0",
      "from": "0x3ebf8ffc3f1517f9760dd2bff36f934d19fa6cd8",
      "to": "0xa1de025b706687b9a4ec40a3958aa5dc60bf1b66",
      "contractAddress": null,
      "gasUsedForL1": "0x0",
      "l1BlockNumber": "0x9e0153",
      "timeboosted": false
    },
    {
      "status": "0x1",
      "cumulativeGasUsed": "0x195a7",
      "logs": [
        {
          "address": "0xa1de025b706687b9a4ec40a3958aa5dc60bf1b66",
          "topics": [
            "0x3e8e850f6b70ae0ddd4bcc9e736111c00225be60aab9085691176cb31faaf433",
            "0x0000000000000000000000000000000000000000000000008f90b8876dee6538"
          ],
          "data": "0x000000000000000000000000000000000000000000000000006a94d74f4300000000000000000000000000000000000000000000000000000000000069a2f675",
          "blockHash": "0x98c087191542efdce5d93cca9c0ae666f32ceabf2a303e6e73701539d727ef1a",
          "blockNumber": "0xea886c1",
          "blockTimestamp": "0x69a2f675",
          "transactionHash": "0x76a7bc14d0e39efce944e5e0d7dd9a2c55a882593c06e2b1d3c2c81c59bbce81",
          "transactionIndex": "0x1",
          "logIndex": "0x0",
          "removed": false
        }
      ],
      "logsBloom": "0x00000000000000000000000000000000000000000001000000000000000000000000000000000000000000000000000000000000000000000000000000000000000000000000000000000040000000000000000400010000000000000000200000000000008000000000000000000000000000000000000000000000000000004000000000000000000000000000000000000000000000000000000000000000000000000000000000000000000000000000000000000000000000000000000000004000000000000000000000000000000000000000000000000000000000000000000000000000000000000000000000000000000000000000040000000000",
      "type": "0x2",
      "transactionHash": "0x76a7bc14d0e39efce944e5e0d7dd9a2c55a882593c06e2b1d3c2c81c59bbce81",
      "transactionIndex": "0x1",
      "blockHash": "0x98c087191542efdce5d93cca9c0ae666f32ceabf2a303e6e73701539d727ef1a",
      "blockNumber": "0xea886c1",
      "gasUsed": "0x195a7",
      "effectiveGasPrice": "0x1312d00",
      "from": "0x3ebf8ffc3f1517f9760dd2bff36f934d19fa6cd8",
      "to": "0xa1de025b706687b9a4ec40a3958aa5dc60bf1b66",
      "contractAddress": null,
      "gasUsedForL1": "0x0",
      "l1BlockNumber": "0x9e0153",
      "timeboosted": false
    }
  ],
  "libraries": [],
  "pending": [],
  "returns": {},
  "timestamp": 1772287606214,
  "chain": 421614,
  "commit": "8d83af6"
}