{
  "transactions": [
    {
      "hash": "0xb2d6560c49a0fcf294842d4c51571c2120374f7a35cb5690df7b7a8000a71c51",
      "transactionType": "CALL",
      "contractName": null,
      "contractAddress": "0x6ca798668b46885b40830e98a6a5a8f267d6ed1c",
      "function": "setAutomationForwarder(address)",
      "arguments": [
        "0x007A753d63069477A2045FD873c9Ed6E875F52ff"
      ],
      "transaction": {
        "from": "0x3ebf8ffc3f1517f9760dd2bff36f934d19fa6cd8",
        "to": "0x6ca798668b46885b40830e98a6a5a8f267d6ed1c",
        "gas": "0x9684",
        "value": "0x0",
        "input": "0xd40d17bc000000000000000000000000007a753d63069477a2045fd873c9ed6e875f52ff",
        "nonce": "0x69",
        "chainId": "0x14a34"
      },
      "additionalContracts": [],
      "isFixedGasLimit": false
    }
  ],
  "receipts": [
    {
      "status": "0x1",
      "cumulativeGasUsed": "0x16eba1",
      "logs": [],
      "logsBloom": "0x00000000000000000000000000000000000000000000000000000000000000000000000000000000000000000000000000000000000000000000000000000000000000000000000000000000000000000000000000000000000000000000000000000000000000000000000000000000000000000000000000000000000000000000000000000000000000000000000000000000000000000000000000000000000000000000000000000000000000000000000000000000000000000000000000000000000000000000000000000000000000000000000000000000000000000000000000000000000000000000000000000000000000000000000000000000",
      "type": "0x2",
      "transactionHash": "0xb2d6560c49a0fcf294842d4c51571c2120374f7a35cb5690df7b7a8000a71c51",
      "transactionIndex": "0x12",
      "blockHash": "0xd0a28b587a0fb9befd45931039595b3d2ecc973c431bad6303475d8a4275ed26",
      "blockNumber": "0x2475161",
      "gasUsed": "0x66eb",
      "effectiveGasPrice": "0x5b8d80",
      "blobGasUsed": "0x364c",
      "from": "0x3ebf8ffc3f1517f9760dd2bff36f934d19fa6cd8",
      "to": "0x6ca798668b46885b40830e98a6a5a8f267d6ed1c",
      "contractAddress": null,
      "daFootprintGasScalar": "0x8b",
      "l1BaseFeeScalar": "0x44d",
      "l1BlobBaseFee": "0x1",
      "l1BlobBaseFeeScalar": "0xa118b",
      "l1Fee": "0x68",
      "l1GasPrice": "0x16",
      "l1GasUsed": "0x640"
    }
  ],
  "libraries": [],
  "pending": [],
  "returns": {},
  "timestamp": 1772224930344,
  "chain": 84532,
  "commit": "8d83af6"
}