{
  "transactions": [
    {
      "hash": "0xebf2332e82fab5339bfb312065845bb5d1bc999f2efb5b1cdf28857cbe64bdd3",
      "transactionType": "CALL",
      "contractName": null,
      "contractAddress": "0x6ca798668b46885b40830e98a6a5a8f267d6ed1c",
      "function": "setAutomationForwarder(address)",
      "arguments": [
        "0x007A753d63069477A2045FD873c9Ed6E875F52ff"
      ],
      "transaction": {
        "from": "0x3ebf8ffc3f1517f9760dd2bff36f934d19fa6cd8",
        "to": "0x6ca798668b46885b40830e98a6a5a8f267d6ed1c",
        "gas": "0xf986",
        "value": "0x0",
        "input": "0xd40d17bc000000000000000000000000007a753d63069477a2045fd873c9ed6e875f52ff",
        "nonce": "0x66",
        "chainId": "0x14a34"
      },
      "additionalContracts": [],
      "isFixedGasLimit": false
    }
  ],
  "receipts": [
    {
      "status": "0x1",
      "cumulativeGasUsed": "0x87dc6",
      "logs": [],
      "logsBloom": "0x00000000000000000000000000000000000000000000000000000000000000000000000000000000000000000000000000000000000000000000000000000000000000000000000000000000000000000000000000000000000000000000000000000000000000000000000000000000000000000000000000000000000000000000000000000000000000000000000000000000000000000000000000000000000000000000000000000000000000000000000000000000000000000000000000000000000000000000000000000000000000000000000000000000000000000000000000000000000000000000000000000000000000000000000000000000",
      "type": "0x2",
      "transactionHash": "0xebf2332e82fab5339bfb312065845bb5d1bc999f2efb5b1cdf28857cbe64bdd3",
      "transactionIndex": "0x5",
      "blockHash": "0x0000000000000000000000000000000000000000000000000000000000000000",
      "blockNumber": "0x24749da",
      "gasUsed": "0xb4a7",
      "effectiveGasPrice": "0x5b8d80",
      "blobGasUsed": "0x364c",
      "from": "0x3ebf8ffc3f1517f9760dd2bff36f934d19fa6cd8",
      "to": "0x6ca798668b46885b40830e98a6a5a8f267d6ed1c",
      "contractAddress": null,
      "daFootprintGasScalar": "0x8b",
      "l1BaseFeeScalar": "0x44d",
      "l1BlobBaseFee": "0x2",
      "l1BlobBaseFeeScalar": "0xa118b",
      "l1Fee": "0x3a8",
      "l1GasPrice": "0x1a",
      "l1GasUsed": "0x640"
    }
  ],
  "libraries": [],
  "pending": [],
  "returns": {},
  "timestamp": 1772221074234,
  "chain": 84532,
  "commit": "8d83af6"
}