{
  "transactions": [
    {
      "hash": "0x984b78c1ffcf8d1b1af07b70acc60c566f2ed86ad0f516a8dca31e9df433820e",
      "transactionType": "CALL",
      "contractName": null,
      "contractAddress": "0x6ba1b0802d4f483c9a884c5daa48c35e1da8737b",
      "function": "approve(address,uint256)",
      "arguments": [
        "0xe195954e128D7c65ba0632128B4F2d84EfE6A8D7",
        "10000000000"
      ],
      "transaction": {
        "from": "0x3ebf8ffc3f1517f9760dd2bff36f934d19fa6cd8",
        "to": "0x6ba1b0802d4f483c9a884c5daa48c35e1da8737b",
        "gas": "0x9920",
        "value": "0x0",
        "input": "0x095ea7b3000000000000000000000000e195954e128d7c65ba0632128b4f2d84efe6a8d700000000000000000000000000000000000000000000000000000002540be400",
        "nonce": "0x41",
        "chainId": "0x66eee"
      },
      "additionalContracts": [],
      "isFixedGasLimit": false
    },
    {
      "hash": "0xf6ce62e6078ee04e2e465677e5c70fcb1ac2db3d7656ac71c479c88f7fba07d0",
      "transactionType": "CALL",
      "contractName": "VaultManager",
      "contractAddress": "0xe195954e128d7c65ba0632128b4f2d84efe6a8d7",
      "function": "deposit(uint256)",
      "arguments": [
        "10000000000"
      ],
      "transaction": {
        "from": "0x3ebf8ffc3f1517f9760dd2bff36f934d19fa6cd8",
        "to": "0xe195954e128d7c65ba0632128b4f2d84efe6a8d7",
        "gas": "0x3ffa2",
        "value": "0x0",
        "input": "0xb6b55f2500000000000000000000000000000000000000000000000000000002540be400",
        "nonce": "0x42",
        "chainId": "0x66eee"
      },
      "additionalContracts": [],
      "isFixedGasLimit": false
    }
  ],
  "receipts": [
    {
      "status": "0x1",
      "cumulativeGasUsed": "0x746c",
      "logs": [
        {
          "address": "0x6ba1b0802d4f483c9a884c5daa48c35e1da8737b",
          "topics": [
            "0x8c5be1e5ebec7d5bd14f71427d1e84f3dd0314c0f7b2291e5b200ac8c7c3b925",
            "0x0000000000000000000000003ebf8ffc3f1517f9760dd2bff36f934d19fa6cd8",
            "0x000000000000000000000000e195954e128d7c65ba0632128b4f2d84efe6a8d7"
          ],
          "data": "0x00000000000000000000000000000000000000000000000000000002540be400",
          "blockHash": "0xa54ec898bdc86076e58ceda8d3e8ba567d77a59be09ff88c273e69be3ab6a59d",
          "blockNumber": "0xea2809d",
          "blockTimestamp": "0x69a0bd99",
          "transactionHash": "0x984b78c1ffcf8d1b1af07b70acc60c566f2ed86ad0f516a8dca31e9df433820e",
          "transactionIndex": "0x1",
          "logIndex": "0x0",
          "removed": false
        }
      ],
      "logsBloom": "0x00000000000000000000000000000080000000000000000000000000000000000000000000000000000000000000000004000000000000000000000000200000000000000000000000000000000000000000000000000000000000000400000000000600000000000000000000000000000000000000000000000000000000000000000000000000000000000000000000000000000000000000000000000000020000000000000000000000000000008000000000000000000000000000000000000000000000000000000000001000000000000800000000000000000000000010000000000000000000008000000000000000000000000000000000000000",
      "type": "0x2",
      "transactionHash": "0x984b78c1ffcf8d1b1af07b70acc60c566f2ed86ad0f516a8dca31e9df433820e",
      "transactionIndex": "0x1",
      "blockHash": "0xa54ec898bdc86076e58ceda8d3e8ba567d77a59be09ff88c273e69be3ab6a59d",
      "blockNumber": "0xea2809d",
      "gasUsed": "0x746c",
      "effectiveGasPrice": "0x1314470",
      "from": "0x3ebf8ffc3f1517f9760dd2bff36f934d19fa6cd8",
      "to": "0x6ba1b0802d4f483c9a884c5daa48c35e1da8737b",
      "contractAddress": null,
      "gasUsedForL1": "0x0",
      "l1BlockNumber": "0x9dd359",
      "timeboosted": false
    },
    {
      "status": "0x1",
      "cumulativeGasUsed": "0x2e518",
      "logs": [
        {
          "address": "0x6ba1b0802d4f483c9a884c5daa48c35e1da8737b",
          "topics": [
            "0xddf252ad1be2c89b69c2b068fc378daa952ba7f163c4a11628f55a4df523b3ef",
            "0x0000000000000000000000003ebf8ffc3f1517f9760dd2bff36f934d19fa6cd8",
            "0x000000000000000000000000e195954e128d7c65ba0632128b4f2d84efe6a8d7"
          ],
          "data": "0x00000000000000000000000000000000000000000000000000000002540be400",
          "blockHash": "0x515de322e0727a81951f4846e3b465cb58ea864b6fc629589602c722a73fedd3",
          "blockNumber": "0xea280a1",
          "blockTimestamp": "0x69a0bd9a",
          "transactionHash": "0xf6ce62e6078ee04e2e465677e5c70fcb1ac2db3d7656ac71c479c88f7fba07d0",
          "transactionIndex": "0x1",
          "logIndex": "0x0",
          "removed": false
        },
        {
          "address": "0x6ba1b0802d4f483c9a884c5daa48c35e1da8737b",
          "topics": [
            "0x8c5be1e5ebec7d5bd14f71427d1e84f3dd0314c0f7b2291e5b200ac8c7c3b925",
            "0x000000000000000000000000e195954e128d7c65ba0632128b4f2d84efe6a8d7",
            "0x00000000000000000000000033e5969ea863d298000d7e0414f6a3dc358c3de3"
          ],
          "data": "0x00000000000000000000000000000000000000000000000000000002540be400",
          "blockHash": "0x515de322e0727a81951f4846e3b465cb58ea864b6fc629589602c722a73fedd3",
          "blockNumber": "0xea280a1",
          "blockTimestamp": "0x69a0bd9a",
          "transactionHash": "0xf6ce62e6078ee04e2e465677e5c70fcb1ac2db3d7656ac71c479c88f7fba07d0",
          "transactionIndex": "0x1",
          "logIndex": "0x1",
          "removed": false
        },
        {
          "address": "0x6ba1b0802d4f483c9a884c5daa48c35e1da8737b",
          "topics": [
            "0xddf252ad1be2c89b69c2b068fc378daa952ba7f163c4a11628f55a4df523b3ef",
            "0x000000000000000000000000e195954e128d7c65ba0632128b4f2d84efe6a8d7",
            "0x00000000000000000000000033e5969ea863d298000d7e0414f6a3dc358c3de3"
          ],
          "data": "0x00000000000000000000000000000000000000000000000000000002540be400",
          "blockHash": "0x515de322e0727a81951f4846e3b465cb58ea864b6fc629589602c722a73fedd3",
          "blockNumber": "0xea280a1",
          "blockTimestamp": "0x69a0bd9a",
          "transactionHash": "0xf6ce62e6078ee04e2e465677e5c70fcb1ac2db3d7656ac71c479c88f7fba07d0",
          "transactionIndex": "0x1",
          "logIndex": "0x2",
          "removed": false
        },
        {
          "address": "0x33e5969ea863d298000d7e0414f6a3dc358c3de3",
          "topics": [
            "0x9d624b01705090e0c402c84f2bdef9c498399a009cee9a4e08ab004bae447121"
          ],
          "data": "0x000000000000000000000000e195954e128d7c65ba0632128b4f2d84efe6a8d700000000000000000000000000000000000000000000000000000002540be400000000000000000000000000000000000000000000000000000000025405a546",
          "blockHash": "0x515de322e0727a81951f4846e3b465cb58ea864b6fc629589602c722a73fedd3",
          "blockNumber": "0xea280a1",
          "blockTimestamp": "0x69a0bd9a",
          "transactionHash": "0xf6ce62e6078ee04e2e465677e5c70fcb1ac2db3d7656ac71c479c88f7fba07d0",
          "transactionIndex": "0x1",
          "logIndex": "0x3",
          "removed": false
        },
        {
          "address": "0xe195954e128d7c65ba0632128b4f2d84efe6a8d7",
          "topics": [
            "0x73a19dd210f1a7f902193214c0ee91dd35ee5b4d920cba8d519eca65a7b488ca",
            "0x0000000000000000000000003ebf8ffc3f1517f9760dd2bff36f934d19fa6cd8"
          ],
          "data": "0x00000000000000000000000000000000000000000000000000000002540be40000000000000000000000000000000000000000000000000000000002540be400",
          "blockHash": "0x515de322e0727a81951f4846e3b465cb58ea864b6fc629589602c722a73fedd3",
          "blockNumber": "0xea280a1",
          "blockTimestamp": "0x69a0bd9a",
          "transactionHash": "0xf6ce62e6078ee04e2e465677e5c70fcb1ac2db3d7656ac71c479c88f7fba07d0",
          "transactionIndex": "0x1",
          "logIndex": "0x4",
          "removed": false
        }
      ],
      "logsBloom": "0x0020000000000000000000000000008000000000000004000000000000000000000000000000000000090000000000000400000000000000000000000020000000000000000000000000000800000000000000080000000000000000040000000000060000080000000000000000000000000000000000000000001000000000000000000000000000000000000000000000000000000000000000000000000002000000000004000000008010000000a000000000000000000002000000000000000002000000000000000000001000000000100800000000000000000000000018000000200000000000008000000002000000000000000000000000000000",
      "type": "0x2",
      "transactionHash": "0xf6ce62e6078ee04e2e465677e5c70fcb1ac2db3d7656ac71c479c88f7fba07d0",
      "transactionIndex": "0x1",
      "blockHash": "0x515de322e0727a81951f4846e3b465cb58ea864b6fc629589602c722a73fedd3",
      "blockNumber": "0xea280a1",
      "gasUsed": "0x2e518",
      "effectiveGasPrice": "0x1312d00",
      "from": "0x3ebf8ffc3f1517f9760dd2bff36f934d19fa6cd8",
      "to": "0xe195954e128d7c65ba0632128b4f2d84efe6a8d7",
      "contractAddress": null,
      "gasUsedForL1": "0x0",
      "l1BlockNumber": "0x9dd359",
      "timeboosted": false
    }
  ],
  "libraries": [],
  "pending": [],
  "returns": {},
  "timestamp": 1772141978686,
  "chain": 421614,
  "commit": "3d65528"
}