{
  "transactions": [
    {
      "hash": "0x4186014755d95bce215c5567fa3e8a102bb877339f6be38065d5f01fddf22cf4",
      "transactionType": "CALL",
      "contractName": null,
      "contractAddress": "0x566b1f2af3b1dec79c9a2f3e02413f5a7e85af5f",
      "function": "setAutomationForwarder(address)",
      "arguments": [
        "0xe025048B60f5b6Da9380fbfA3aC75F567131e89d"
      ],
      "transaction": {
        "from": "0x3ebf8ffc3f1517f9760dd2bff36f934d19fa6cd8",
        "to": "0x566b1f2af3b1dec79c9a2f3e02413f5a7e85af5f",
        "gas": "0xecdb",
        "value": "0x0",
        "input": "0xd40d17bc000000000000000000000000e025048b60f5b6da9380fbfa3ac75f567131e89d",
        "nonce": "0x8b",
        "chainId": "0x66eee"
      },
      "additionalContracts": [],
      "isFixedGasLimit": false
    }
  ],
  "receipts": [
    {
      "status": "0x1",
      "cumulativeGasUsed": "0xb4b5",
      "logs": [],
      "logsBloom": "0x00000000000000000000000000000000000000000000000000000000000000000000000000000000000000000000000000000000000000000000000000000000000000000000000000000000000000000000000000000000000000000000000000000000000000000000000000000000000000000000000000000000000000000000000000000000000000000000000000000000000000000000000000000000000000000000000000000000000000000000000000000000000000000000000000000000000000000000000000000000000000000000000000000000000000000000000000000000000000000000000000000000000000000000000000000000",
      "type": "0x2",
      "transactionHash": "0x4186014755d95bce215c5567fa3e8a102bb877339f6be38065d5f01fddf22cf4",
      "transactionIndex": "0x1",
      "blockHash": "0x739116f87b2da8d5c94239b66496e6eeaf79eb41aa0797a74eb889e06cfad15a",
      "blockNumber": "0xea5b22a",
      "gasUsed": "0xb4b5",
      "effectiveGasPrice": "0x13134d0",
      "from": "0x3ebf8ffc3f1517f9760dd2bff36f934d19fa6cd8",
      "to": "0x566b1f2af3b1dec79c9a2f3e02413f5a7e85af5f",
      "contractAddress": null,
      "gasUsedForL1": "0x2",
      "l1BlockNumber": "0x9dec3b",
      "timeboosted": false
    }
  ],
  "libraries": [],
  "pending": [],
  "returns": {},
  "timestamp": 1772220870100,
  "chain": 421614,
  "commit": "8d83af6"
}