{
  "transactions": [
    {
      "hash": "0x77caaa50b887efa7c03c6b416572b31f7a49fc5e6161aef606eeebcd1ef7d933",
      "transactionType": "CALL",
      "contractName": null,
      "contractAddress": "0xd17ddca638674459608e506e58c0e916156a83eb",
      "function": "setAutomationForwarder(address)",
      "arguments": [
        "0xF69E45264E5a4abBd3690EE31616335ea3AfCb6E"
      ],
      "transaction": {
        "from": "0x3ebf8ffc3f1517f9760dd2bff36f934d19fa6cd8",
        "to": "0xd17ddca638674459608e506e58c0e916156a83eb",
        "gas": "0xecda",
        "value": "0x0",
        "input": "0xd40d17bc000000000000000000000000f69e45264e5a4abbd3690ee31616335ea3afcb6e",
        "nonce": "0x9f",
        "chainId": "0x66eee"
      },
      "additionalContracts": [],
      "isFixedGasLimit": false
    }
  ],
  "receipts": [
    {
      "status": "0x1",
      "cumulativeGasUsed": "0xb4b4",
      "logs": [],
      "logsBloom": "0x00000000000000000000000000000000000000000000000000000000000000000000000000000000000000000000000000000000000000000000000000000000000000000000000000000000000000000000000000000000000000000000000000000000000000000000000000000000000000000000000000000000000000000000000000000000000000000000000000000000000000000000000000000000000000000000000000000000000000000000000000000000000000000000000000000000000000000000000000000000000000000000000000000000000000000000000000000000000000000000000000000000000000000000000000000000",
      "type": "0x2",
      "transactionHash": "0x77caaa50b887efa7c03c6b416572b31f7a49fc5e6161aef606eeebcd1ef7d933",
      "transactionIndex": "0x1",
      "blockHash": "0x6ed44cdb09c3654fe1324c7c0de838e36ca6ca9a6731f7988fdda0c7ed4e6095",
      "blockNumber": "0xea5db36",
      "gasUsed": "0xb4b4",
      "effectiveGasPrice": "0x13163b0",
      "from": "0x3ebf8ffc3f1517f9760dd2bff36f934d19fa6cd8",
      "to": "0xd17ddca638674459608e506e58c0e916156a83eb",
      "contractAddress": null,
      "gasUsedForL1": "0x1",
      "l1BlockNumber": "0x9ded7c",
      "timeboosted": false
    }
  ],
  "libraries": [],
  "pending": [],
  "returns": {},
  "timestamp": 1772224830727,
  "chain": 421614,
  "commit": "8d83af6"
}