{
  "transactions": [
    {
      "hash": "0x317274bcfaf68a29453983b91b2b78ce8257a2ddda4e72f0c96274f28aa51279",
      "transactionType": "CALL",
      "contractName": null,
      "contractAddress": "0x37c78afb59a2d66811565ca2431bfa395ed7666b",
      "function": "setAutomationForwarder(address)",
      "arguments": [
        "0x712e14843DD031cB47B203470E0942E5dcaAA05b"
      ],
      "transaction": {
        "from": "0x3ebf8ffc3f1517f9760dd2bff36f934d19fa6cd8",
        "to": "0x37c78afb59a2d66811565ca2431bfa395ed7666b",
        "gas": "0x10845",
        "value": "0x0",
        "input": "0xd40d17bc000000000000000000000000712e14843dd031cb47b203470e0942e5dcaaa05b",
        "nonce": "0x2e",
        "chainId": "0x14a34"
      },
      "additionalContracts": [],
      "isFixedGasLimit": false
    }
  ],
  "receipts": [
    {
      "status": "0x1",
      "cumulativeGasUsed": "0x429098",
      "logs": [],
      "logsBloom": "0x00000000000000000000000000000000000000000000000000000000000000000000000000000000000000000000000000000000000000000000000000000000000000000000000000000000000000000000000000000000000000000000000000000000000000000000000000000000000000000000000000000000000000000000000000000000000000000000000000000000000000000000000000000000000000000000000000000000000000000000000000000000000000000000000000000000000000000000000000000000000000000000000000000000000000000000000000000000000000000000000000000000000000000000000000000000",
      "type": "0x2",
      "transactionHash": "0x317274bcfaf68a29453983b91b2b78ce8257a2ddda4e72f0c96274f28aa51279",
      "transactionIndex": "0xf",
      "blockHash": "0xc0236481c0735764e11edcc87c093d87e78b22859c840681bf2b2fa0b1629573",
      "blockNumber": "0x246ae55",
      "gasUsed": "0xb4b3",
      "effectiveGasPrice": "0x5b8d80",
      "blobGasUsed": "0x364c",
      "from": "0x3ebf8ffc3f1517f9760dd2bff36f934d19fa6cd8",
      "to": "0x37c78afb59a2d66811565ca2431bfa395ed7666b",
      "contractAddress": null,
      "daFootprintGasScalar": "0x8b",
      "l1BaseFeeScalar": "0x44d",
      "l1BlobBaseFee": "0x1",
      "l1BlobBaseFeeScalar": "0xa118b",
      "l1Fee": "0x57",
      "l1GasPrice": "0xc",
      "l1GasUsed": "0x640"
    }
  ],
  "libraries": [],
  "pending": [],
  "returns": {},
  "timestamp": 1772141450594,
  "chain": 84532,
  "commit": "3d65528"
}