{
  "transactions": [
    {
      "hash": "0xe8f172bb0f591135bef08b54b787ba623b832695b3e3b15b63f59a5e0326170b",
      "transactionType": "CALL",
      "contractName": null,
      "contractAddress": "0x88a2d74f47a237a62e7a51cdda67270ce381555e",
      "function": "approve(address,uint256)",
      "arguments": [
        "0x6Ca798668B46885B40830E98A6A5A8F267D6Ed1C",
        "1000000000000000000"
      ],
      "transaction": {
        "from": "0x3ebf8ffc3f1517f9760dd2bff36f934d19fa6cd8",
        "to": "0x88a2d74f47a237a62e7a51cdda67270ce381555e",
        "gas": "0x108b7",
        "value": "0x0",
        "input": "0x095ea7b30000000000000000000000006ca798668b46885b40830e98a6a5a8f267d6ed1c0000000000000000000000000000000000000000000000000de0b6b3a7640000",
        "nonce": "0x7c",
        "chainId": "0x14a34"
      },
      "additionalContracts": [],
      "isFixedGasLimit": false
    },
    {
      "hash": "0x79e977881fee1ac670d8e614ec12381184ca9ce0d32314ae302c6fdafdc19e53",
      "transactionType": "CALL",
      "contractName": null,
      "contractAddress": "0x6ca798668b46885b40830e98a6a5a8f267d6ed1c",
      "function": "deposit(uint256)",
      "arguments": [
        "1000000000000000000"
      ],
      "transaction": {
        "from": "0x3ebf8ffc3f1517f9760dd2bff36f934d19fa6cd8",
        "to": "0x6ca798668b46885b40830e98a6a5a8f267d6ed1c",
        "gas": "0x2e03a",
        "value": "0x0",
        "input": "0xb6b55f250000000000000000000000000000000000000000000000000de0b6b3a7640000",
        "nonce": "0x7d",
        "chainId": "0x14a34"
      },
      "additionalContracts": [],
      "isFixedGasLimit": false
    }
  ],
  "receipts": [
    {
      "status": "0x1",
      "cumulativeGasUsed": "0x95d4d",
      "logs": [
        {
          "address": "0x88a2d74f47a237a62e7a51cdda67270ce381555e",
          "topics": [
            "0x8c5be1e5ebec7d5bd14f71427d1e84f3dd0314c0f7b2291e5b200ac8c7c3b925",
            "0x0000000000000000000000003ebf8ffc3f1517f9760dd2bff36f934d19fa6cd8",
            "0x0000000000000000000000006ca798668b46885b40830e98a6a5a8f267d6ed1c"
          ],
          "data": "0x0000000000000000000000000000000000000000000000000de0b6b3a7640000",
          "blockHash": "0x0000000000000000000000000000000000000000000000000000000000000000",
          "blockNumber": "0x2475656",
          "blockTimestamp": "0x69a20b8c",
          "transactionHash": "0xe8f172bb0f591135bef08b54b787ba623b832695b3e3b15b63f59a5e0326170b",
          "transactionIndex": "0x5",
          "logIndex": "0xd",
          "removed": false
        }
      ],
      "logsBloom": "0x00000000000000000000000000000000000000000000000000000000000800000000000000000000000000000000000000000000000000000000000000200000000000000000000000000000400000000000000000000000000000000000000000000600000000080000000000000000000000000000000000000000000000000000000000002000000000000000000000000000000000000000000000000000020000000000000000100000000000000000000000000000000000000000000000000000000000000000000000000000000000000000000000000000000200000010000000000000000000008000000000000000000000000000000000000000",
      "type": "0x2",
      "transactionHash": "0xe8f172bb0f591135bef08b54b787ba623b832695b3e3b15b63f59a5e0326170b",
      "transactionIndex": "0x5",
      "blockHash": "0x0000000000000000000000000000000000000000000000000000000000000000",
      "blockNumber": "0x2475656",
      "gasUsed": "0xb501",
      "effectiveGasPrice": "0x5b8d80",
      "blobGasUsed": "0x364c",
      "from": "0x3ebf8ffc3f1517f9760dd2bff36f934d19fa6cd8",
      "to": "0x88a2d74f47a237a62e7a51cdda67270ce381555e",
      "contractAddress": null,
      "daFootprintGasScalar": "0x8b",
      "l1BaseFeeScalar": "0x44d",
      "l1BlobBaseFee": "0x1",
      "l1BlobBaseFeeScalar": "0xa118b",
      "l1Fee": "0x78",
      "l1GasPrice": "0x1f",
      "l1GasUsed": "0x640"
    },
    {
      "status": "0x1",
      "cumulativeGasUsed": "0x18f604",
      "logs": [
        {
          "address": "0x88a2d74f47a237a62e7a51cdda67270ce381555e",
          "topics": [
            "0x8c5be1e5ebec7d5bd14f71427d1e84f3dd0314c0f7b2291e5b200ac8c7c3b925",
            "0x0000000000000000000000003ebf8ffc3f1517f9760dd2bff36f934d19fa6cd8",
            "0x0000000000000000000000006ca798668b46885b40830e98a6a5a8f267d6ed1c"
          ],
          "data": "0x0000000000000000000000000000000000000000000000000000000000000000",
          "blockHash": "0x9105415cb674c841f002d797b56027cc3c49161aaae854d41a7932bde51eb489",
          "blockNumber": "0x2475656",
          "blockTimestamp": "0x69a20b8c",
          "transactionHash": "0x79e977881fee1ac670d8e614ec12381184ca9ce0d32314ae302c6fdafdc19e53",
          "transactionIndex": "0xb",
          "logIndex": "0x1d",
          "removed": false
        },
        {
          "address": "0x88a2d74f47a237a62e7a51cdda67270ce381555e",
          "topics": [
            "0xddf252ad1be2c89b69c2b068fc378daa952ba7f163c4a11628f55a4df523b3ef",
            "0x0000000000000000000000003ebf8ffc3f1517f9760dd2bff36f934d19fa6cd8",
            "0x0000000000000000000000006ca798668b46885b40830e98a6a5a8f267d6ed1c"
          ],
          "data": "0x0000000000000000000000000000000000000000000000000de0b6b3a7640000",
          "blockHash": "0x9105415cb674c841f002d797b56027cc3c49161aaae854d41a7932bde51eb489",
          "blockNumber": "0x2475656",
          "blockTimestamp": "0x69a20b8c",
          "transactionHash": "0x79e977881fee1ac670d8e614ec12381184ca9ce0d32314ae302c6fdafdc19e53",
          "transactionIndex": "0xb",
          "logIndex": "0x1e",
          "removed": false
        },
        {
          "address": "0x88a2d74f47a237a62e7a51cdda67270ce381555e",
          "topics": [
            "0x8c5be1e5ebec7d5bd14f71427d1e84f3dd0314c0f7b2291e5b200ac8c7c3b925",
            "0x0000000000000000000000006ca798668b46885b40830e98a6a5a8f267d6ed1c",
            "0x000000000000000000000000f77216d1f04adb76c633eb22f2686cf90ac6b0ca"
          ],
          "data": "0x0000000000000000000000000000000000000000000000000de0b6b3a7640000",
          "blockHash": "0x9105415cb674c841f002d797b56027cc3c49161aaae854d41a7932bde51eb489",
          "blockNumber": "0x2475656",
          "blockTimestamp": "0x69a20b8c",
          "transactionHash": "0x79e977881fee1ac670d8e614ec12381184ca9ce0d32314ae302c6fdafdc19e53",
          "transactionIndex": "0xb",
          "logIndex": "0x1f",
          "removed": false
        },
        {
          "address": "0x88a2d74f47a237a62e7a51cdda67270ce381555e",
          "topics": [
            "0x8c5be1e5ebec7d5bd14f71427d1e84f3dd0314c0f7b2291e5b200ac8c7c3b925",
            "0x0000000000000000000000006ca798668b46885b40830e98a6a5a8f267d6ed1c",
            "0x000000000000000000000000f77216d1f04adb76c633eb22f2686cf90ac6b0ca"
          ],
          "data": "0x0000000000000000000000000000000000000000000000000000000000000000",
          "blockHash": "0x9105415cb674c841f002d797b56027cc3c49161aaae854d41a7932bde51eb489",
          "blockNumber": "0x2475656",
          "blockTimestamp": "0x69a20b8c",
          "transactionHash": "0x79e977881fee1ac670d8e614ec12381184ca9ce0d32314ae302c6fdafdc19e53",
          "transactionIndex": "0xb",
          "logIndex": "0x20",
          "removed": false
        },
        {
          "address": "0x88a2d74f47a237a62e7a51cdda67270ce381555e",
          "topics": [
            "0xddf252ad1be2c89b69c2b068fc378daa952ba7f163c4a11628f55a4df523b3ef",
            "0x0000000000000000000000006ca798668b46885b40830e98a6a5a8f267d6ed1c",
            "0x000000000000000000000000f77216d1f04adb76c633eb22f2686cf90ac6b0ca"
          ],
          "data": "0x0000000000000000000000000000000000000000000000000de0b6b3a7640000",
          "blockHash": "0x9105415cb674c841f002d797b56027cc3c49161aaae854d41a7932bde51eb489",
          "blockNumber": "0x2475656",
          "blockTimestamp": "0x69a20b8c",
          "transactionHash": "0x79e977881fee1ac670d8e614ec12381184ca9ce0d32314ae302c6fdafdc19e53",
          "transactionIndex": "0xb",
          "logIndex": "0x21",
          "removed": false
        },
        {
          "address": "0xf77216d1f04adb76c633eb22f2686cf90ac6b0ca",
          "topics": [
            "0x9d624b01705090e0c402c84f2bdef9c498399a009cee9a4e08ab004bae447121"
          ],
          "data": "0x0000000000000000000000006ca798668b46885b40830e98a6a5a8f267d6ed1c0000000000000000000000000000000000000000000000000de0b6b3a76400000000000000000000000000000000000000000000000000000de0b5ead60d03a6",
          "blockHash": "0x9105415cb674c841f002d797b56027cc3c49161aaae854d41a7932bde51eb489",
          "blockNumber": "0x2475656",
          "blockTimestamp": "0x69a20b8c",
          "transactionHash": "0x79e977881fee1ac670d8e614ec12381184ca9ce0d32314ae302c6fdafdc19e53",
          "transactionIndex": "0xb",
          "logIndex": "0x22",
          "removed": false
        },
        {
          "address": "0x6ca798668b46885b40830e98a6a5a8f267d6ed1c",
          "topics": [
            "0x73a19dd210f1a7f902193214c0ee91dd35ee5b4d920cba8d519eca65a7b488ca",
            "0x0000000000000000000000003ebf8ffc3f1517f9760dd2bff36f934d19fa6cd8"
          ],
          "data": "0x0000000000000000000000000000000000000000000000000de0b6b3a76400000000000000000000000000000000000000000000000000000de0b6b3a7640000",
          "blockHash": "0x9105415cb674c841f002d797b56027cc3c49161aaae854d41a7932bde51eb489",
          "blockNumber": "0x2475656",
          "blockTimestamp": "0x69a20b8c",
          "transactionHash": "0x79e977881fee1ac670d8e614ec12381184ca9ce0d32314ae302c6fdafdc19e53",
          "transactionIndex": "0xb",
          "logIndex": "0x23",
          "removed": false
        }
      ],
      "logsBloom": "0x40000000000000000000000000000000000000000000000000000000000800000000000000000000000900000000000000000000000000000000000000208000000000000000001000000008400000000000000000000000000000000000000000000600000000080000000000000000000100001000000000000010000000000000000000002000000000000000000000000000000080000000000000000000020000000000000000100000100000002000000000000000000002000000000000000002000000000000000000000000000000000000000000000000000200000010000000800000000040008000000002000000000000000000020000000000",
      "type": "0x2",
      "transactionHash": "0x79e977881fee1ac670d8e614ec12381184ca9ce0d32314ae302c6fdafdc19e53",
      "transactionIndex": "0xb",
      "blockHash": "0x9105415cb674c841f002d797b56027cc3c49161aaae854d41a7932bde51eb489",
      "blockNumber": "0x2475656",
      "gasUsed": "0x21504",
      "effectiveGasPrice": "0x5b8d80",
      "blobGasUsed": "0x364c",
      "from": "0x3ebf8ffc3f1517f9760dd2bff36f934d19fa6cd8",
      "to": "0x6ca798668b46885b40830e98a6a5a8f267d6ed1c",
      "contractAddress": null,
      "daFootprintGasScalar": "0x8b",
      "l1BaseFeeScalar": "0x44d",
      "l1BlobBaseFee": "0x1",
      "l1BlobBaseFeeScalar": "0xa118b",
      "l1Fee": "0x78",
      "l1GasPrice": "0x1f",
      "l1GasUsed": "0x640"
    }
  ],
  "libraries": [],
  "pending": [],
  "returns": {},
  "timestamp": 1772227468131,
  "chain": 84532,
  "commit": "8d83af6"
}